:020000040800F2
:1000000030170020214A000831020008330200089E
:10001000370200083B0200083F0200080000000011
:100020000000000000000000000000004302000883
:1000300045020008000000004702000849020008CD
:100040003B4A00083B4A00083B4A00083B4A00087C
:100050003B4A00083B4A00083B4A00083B4A00086C
:100060003B4A00083B4A00083B4A00083B4A00085C
:100070003B4A00083B4A00083B4A00083B4A00084C
:100080003B4A00083B4A00083B4A00083B4A00083C
:100090003B4A00083B4A00083B4A00083B4A00082C
:1000A0003B4A00083B4A00083B4A00083B4A00081C
:1000B0003B4A00083B4A00083B4A00083B4A00080C
:1000C0003B4A00083B4A00083B4A00083B4A0008FC
:1000D0003B4A0008974900083B4A00083B4A000891
:1000E0003B4A00083B4A00083B4A00083B4A0008DC
:1000F0003B4A00083B4A00083B4A00083B4A0008CC
:100100003B4A00083B4A00083B4A00083B4A0008BB
:100110003B4A00083B4A00083B4A00083B4A0008AB
:100120003B4A00083B4A00083B4A00083B4A00089B
:100130003B4A00083B4A00083B4A00083B4A00088B
:100140003B4A00083B4A00083B4A00083B4A00087B
:100150003B4A00083B4A00083B4A00083B4A00086B
:100160003B4A00083B4A00083B4A00083B4A00085B
:100170003B4A00083B4A00083B4A00083B4A00084B
:100180003B4A00083B4A000800F002F800F041F842
:100190000AA090E8000C82448344AAF10107DA45E2
:1001A00001D100F036F8AFF2090EBAE80F0013F0F3
:1001B000010F18BFFB1A43F001031847807B0000B2
:1001C000A07B0000103A24BF78C878C1FAD8520743
:1001D00024BF30C830C144BF04680C6070470000C1
:1001E0000023002400250026103A28BF78C1FBD840
:1001F000520728BF30C148BF0B607047732905F014
:100200005287002070471FB506F0A4F91FBD10B536
:1002100010BD06F02FF81146FFF7F5FF00F0A9FD1D
:1002200006F04DF803B4FFF7F2FF03BC04F054FBF3
:10023000704700BFFEE700BFFEE700BFFEE700BF5C
:10024000FEE7704770477047704700000CB500200C
:10025000019000907648006840F48030744908604E
:1002600000BF7348006800F4003000900198401C03
:100270000190009818B90198B0F5A04FF1D16C48E1
:10028000006800F4003010B10120009001E000206F
:1002900000900098012846D165484030006840F041
:1002A00080506349403108606248006840F4404033
:1002B000604908605E48083000685D4908310860A0
:1002C0000846006840F4004008600846006840F4B2
:1002D000A05008605848091F0860081F006840F0D7
:1002E0008070091F086000BF5148006800F000706E
:1002F0000028F9D040F20570504908604C48083099
:10030000006820F003004A49083108600846006888
:1003100040F00200086000BF45480830006800F067
:100320000C000828F8D10CBD10B54548006840F411
:100330007000434908603E48006840F001003C49B5
:10034000086000203A4908310860394800683D4992
:100350000840374908603C48091D0860081F0068CC
:1003600020F48020091F0860002031490C3108600A
:10037000FFF76CFF4FF0006031498039086010BD15
:1003800070B500200022022300240221284D0835E8
:100390002D6805F00C0020B1042806D0082834D1BF
:1003A00007E02A4D2A4E356033E02A4D284E35604D
:1003B0002FE01F4D2D1D2D68C5F380541C4D2D1DA4
:1003C0002D6805F03F0154B1224DB5FBF1F5184EF3
:1003D000361D3668C6F3881605FB06F209E01B4D8C
:1003E000B5FBF1F5124E361D3668C6F3881605FBCF
:1003F00006F20F4D2D1D2D68C5F301456D1C6B00D8
:10040000B2FBF3F5124E356003E0104D104E35602F
:1004100000BF00BF064D08352D68C5F303150E4E0D
:10042000705D0B4D2D68C540094E356070BD0000F4
:10043000003802400070004008544007003C024071
:1004400088ED00E0FFFFF6FE103000240024F400E9
:100450000000002000127A000400002002468A42B8
:1004600001DD104670470846FCE70246002003E025
:10047000002342F82030401C8842F9DB704730B539
:1004800003460C46632100E0491E53F82100002872
:10049000FAD0632200E0521E54F822000028FAD05D
:1004A000914202DA4FF0FF3030BD914201DD012070
:1004B000FAE711E053F8210054F82150A84201DD79
:1004C0000120F1E753F8210054F82150A84202DA44
:1004D0004FF0FF30E8E7491E0029EBDA0020E3E7A0
:1004E00010B503460C46002103E0002043F821002C
:1004F000491C6429F9DB632100E0491E54F82100FE
:100500000028FAD0002204E054F8220043F8220028
:10051000521C8A42F8DD481C10BD2DE9F047824686
:100520000E466421F848FFF7A0FF6421F748FFF763
:100530009CFF6421F648FFF798FF0027504605F01E
:1005400014FD8046304605F010FD8146C84501DDAA
:10055000404600E048460546002409E0A8F10100B5
:10056000001B1AF800003038E74941F82400641CE9
:100570004445F3DB002408E0A9F10100001B305CD6
:100580003038E24941F82400641C4C45F4DB002477
:100590001BE0DD4850F82400DC4951F824100844E1
:1005A00038440A2190FBF1F201FB1200D84941F8CE
:1005B0002400D54850F82400D44951F824100844A8
:1005C00038440A2190FBF1F7641CAC42E1DB2FB107
:1005D000012228466D1CCE4941F820206C1E09E0FE
:1005E000CB4810F824003030C1B2681E001BC94A45
:1005F0001154641E002CF3DA0020C6494855084601
:10060000BDE8F0872DE9F04781460E466421BE48DB
:10061000FFF72BFF6421BD48FFF727FF6421BC488B
:10062000FFF723FF4FF0000A484605F09EFC0746FF
:10063000304605F09AFC8046474501DD384600E02B
:1006400040460546002408E0781E001B19F800000B
:100650003038AD4941F82400641CBC42F4DB00246E
:1006600008E0A8F10100001B305C3038A74941F8D0
:100670002400641C4445F4DB00241CE0A24850F82C
:100680002400A24951F82410401AA0EB0A00A04906
:1006900041F82400084650F82400002808DA4FF0FA
:1006A000010A084650F824000A3041F8240001E00D
:1006B0004FF0000A641CAC42E0DB00E06D1E681ED7
:1006C000934951F8200008B9012DF7DC6C1E09E0B0
:1006D0008F4810F824003030C1B2681E001B8E4ACB
:1006E0001154641E002CF3DA00208B49485508464B
:1006F000BDE8F0872DE9F35F0E4664218248FFF7DD
:10070000B4FE64218148FFF7B0FE64218048FFF702
:10071000ACFE009805F029FC8046304605F025FC2B
:100720008146002409E0A8F10100011B0098405C0B
:100730003038754941F82400641C4445F3DB00243B
:1007400008E0A9F10100001B305C30386F4941F826
:100750002400641C4C45F4DB002416E0A24600256E
:1007600010E06B4850F82A00674951F82410674A96
:1007700052F8252001FB0200654941F82A006D1C52
:100780000AF1010A4D45ECDB641C4445E6DB4FF001
:10079000000B002415E05E4850F8240058445C49E2
:1007A00041F82400084650F824700A2097FBF0F125
:1007B00000FB1170564941F824000A2097FBF0FB1A
:1007C000641C642CE7DB632400E0641E002C04DB63
:1007D0004F4850F824000028F7D0601C28B930207A
:1007E0004E490870002048700FE0002507E0601BAC
:1007F000474911F820003030484948556D1CA54242
:10080000F5DD0021454A601C11544448BDE8FC9FB9
:100810002DE9F04FADF5497D824688464FF0000B3B
:100820000020C8904FF4C87164A805F0FFFB4FF496
:10083000C871684605F0FAFB64213348FFF715FEDE
:1008400064213248FFF711FE64213148FFF70DFEA5
:10085000504605F08AFB0746404605F086FB814678
:10086000002408E0781E001B1AF8000030382649E2
:1008700041F82400641CBC42F4DB002409E0A9F127
:100880000100001B18F800003038204941F824000E
:10089000641C4C45F3DB1D491B48FFF7F0FD0028A5
:1008A00009DA30201E4908700020487008460DF50E
:1008B000497DBDE8F08F66E0A7EB09055D4502D1F3
:1008C000002D00DD6D1EAB4664216846FFF7CDFDAF
:1008D0007C1E06E0601B0D4951F820004DF82400F5
:1008E000641EAC42F6DA084964A8FFF7F9FD6946D0
:1008F00064A8FFF7C4FD002800DA44E0012600BF29
:100900000020C8902C4629E038000020C8010020B3
:1009100058030020E80400204D050020B205002007
:10092000900F0020FE4850F824005DF82410411A72
:10093000C898081A64A941F8240064A850F8240053
:10094000002808DA0120C89064A850F824000A3072
:1009500041F8240001E00020C890641CBC42E1DBA7
:1009600064A9EF48FFF7BCFD0746EE4840F8256054
:10097000694664A8FFF783FD002800DA01E0761CD1
:10098000BEE700BF00BFE849E548FFF778FD002853
:1009900092DA632400E0641EE24850F8240008B9AB
:1009A000002CF8DA002607E0DE4810F8240030308A
:1009B000DE498855641E761C002CF5DA0020DB49E0
:1009C0008855084673E72DE9FE4F8246884616464D
:1009D0000020019000906421D148FFF746FD64217A
:1009E000D148FFF742FD6421CE48FFF73EFD504657
:1009F00005F0BBFA0546404605F0B7FA81460024EB
:100A000008E0681E001B1AF800003038C44941F89D
:100A10002400641CAC42F4DB002409E0A9F10100CD
:100A2000001B18F800003038BF4941F82400641C4E
:100A30004C45F3DBBC49BA48FFF721FD002811DA29
:100A40006C1E08E0B64810F824003030C1B2681EB1
:100A5000001B3154641E002CF4DA0020705530461F
:100A6000BDE8FE8F5BE0A5EB09070198874202D144
:100A7000002F00DD7F1E01976421AD48FFF7F5FCD4
:100A80006C1E07E0E01BA84951F82000A84941F876
:100A90002400641EBC42F5DAA149A248FFF720FDFC
:100AA000A349A048FFF7EBFC002800DA37E001205B
:100AB000029000BF002000903C461CE0984850F88F
:100AC00024009B4951F82410411A0098081A9549AE
:100AD00041F82400084650F82400002808DA0120D4
:100AE0000090084650F824000A3041F8240001E044
:100AF00000200090641CAC42E0DB8A498848FFF784
:100B0000EFFC05468A498748FFF7B9FC002800DA60
:100B100003E00298401C0290CCE700BF00BF82496E
:100B20007F48FFF7ACFC00289DDA4FF0000B6C1EED
:100B30000EE07B4810F824003030C1B2681E001B64
:100B40003154774850F8240008B14FF0010B641E6F
:100B5000002CEEDA00207055BBF1000F03D13020DD
:100B600030700020707030467AE770B504460D464C
:100B70001646324629462046FFF725FF70BD2DE96F
:100B8000F04780460C464FF00009404605F0EDF96D
:100B900007460025002612E018F80610303909EB48
:100BA000890201EB4200014600EBD1725210303253
:100BB000A25500EBD1725210A0EB4209761CBE4246
:100BC000EADB0020E05500E06D1C605D302803D1B9
:100BD000681C205C0028F7D1781B421C6119204654
:100BE00005F0E2F9BDE8F087014605E00878302815
:100BF00001D000207047491C08780028F6D1012058
:100C0000F8E72DE9F04105460E462946494805F02A
:100C100088F9741E26E04748FFF7E6FF18B1302038
:100C2000454908551DE0434805F09FF9401E4149DC
:100C3000085CA0F1300707EBD7704010A7EB400825
:100C4000B8F1000F01D0312000E030203A490855BA
:100C50003A493848FFF793FF3849364805F061F9BB
:100C600000BF641E002CD6DA3348BDE8F08103E0F3
:100C700011F8012B00F8012B0A78002AF8D1027034
:100C800070472DE9F04706460C4617462CA12D4823
:100C9000FFF7EDFF31462C48FFF7E9FF204605F04E
:100CA00064F98046002534E0A8F10100401B205C77
:100CB000312816D124492348FFF71CFD81464946B7
:100CC0002248FFF7D4FF224A39462048FFF74DFF5C
:100CD000814649461E48FFF7CAFF1D491948FFF7DC
:100CE000C6FF19490846FFF705FD814649461948E0
:100CF000FFF7BDFF184A39461648FFF736FF814611
:100D000049461548FFF7B3FF13490F48FFF7AFFFF8
:100D10006D1C4545C8DB0B491048FFF7A8FF1FE0D5
:100D20003800002058030020C8010020900F002048
:100D3000E406002017060020780800207C0600202A
:100D400031000000D60A0020050C0020A00B002076
:100D50003B0B0020CF0C00206A0C0020E804002090
:100D60006648BDE8F08700E0401C01783029FBD0E0
:100D7000704738B54FF4A06003F072FEA82003F06E
:100D800029FD4FF4E13003F0B4FD00F059F900F013
:100D9000E8FD03F09DFC5AA005F05AF85BA16048FD
:100DA00005F0BFF85FA1644805F0BBF862495C48F4
:100DB000FFF7B3FB05462946604805F0B2F85F4BE4
:100DC0005D4A57495EA005F043F856A1544805F026
:100DD000A8F84EA1584805F0A4F857495048FFF725
:100DE00011FC05462946554805F09BF8534B524ADD
:100DF0004B4959A005F02CF85EA1494805F091F83F
:100E00005DA14D4805F08DF84B494548FFF772FC50
:100E100005462946494805F084F8484B464A40496A
:100E200058A005F015F85FA13D4805F07AF8424852
:100E30005EA10988018001463948FFF7E9FC0546B3
:100E400029463E4805F06DF83C4B3B4A344958A0D2
:100E500004F0FEFF5CA1324805F063F85CA136485F
:100E600005F05FF8354A34492D48FFF7ACFD0546DB
:100E70002946324805F055F8304B2F4A284956A0EC
:100E800004F0E6FF5AA1264805F04BF85BA12A487A
:100E900005F047F84EA15B4805F043F8264805F0F9
:100EA00064F8840021462448FFF7ABFE0546294636
:100EB000554805F036F85448FFF755FF05462946D2
:100EC000514805F02EF8504950A004F0C1FF4D4A9A
:100ED0004D491348FFF7D5FE05462946174805F04A
:100EE00020F81648FFF73FFF0546464B124A0C49CB
:100EF000009049A004F0ACFF002038BDE8040020B9
:100F0000BFAACABCB4F2D3A10A0000003132333404
:100F100035363738393132333435363738390000E1
:100F2000C80E002039383736353433323139383746
:100F300036353433323100002C0F0020FE0D0020F6
:100F40004164646974696F6E3A202573202B2025F3
:100F500073203D2025730A005375627472616374B7
:100F6000696F6E3A202573202D202573203D2025A2
:100F7000730A0000323630003230303030303030DA
:100F8000000000004D756C7469706C696361746970
:100F90006F6E3A202573202A202573203D2025736B
:100FA0000A0000003630303000000000350000003C
:100FB0004469766973696F6E3A202573202F202566
:100FC00073203D2025730A003136363100000000C1
:100FD00031303030000000004D6F64756C6F3A2086
:100FE0002573202525202573203D2025730A000028
:100FF0003232313036313331343200003435363527
:1010000034000000630E0020340D002042696E6140
:1010100072793A25730A00004661737420506F7725
:101020006572204D6F64756C6F3A2025735E257371
:10103000202525202573203D2025730A000000006F
:101040001CB50121202004F083FB4FF4C060009008
:1010500001208DF8040000208DF8060003208DF893
:10106000050001208DF807006946044803F0EEFDF5
:101070004FF4C061014803F065FE1CBD001402403E
:1010800001B5BDF800000090BDF80000FE490880E1
:1010900008BD01B5BDF800000090BDF80000FA4998
:1010A000891C088008BD08B5F748801C008800909E
:1010B000BDF8000008BDF44A10804FF0D842A2F8F5
:1010C0008010704710B504462046FFF7D9FF052071
:1010D00003F09AFBFFF7E7FF10BDEC480089EA49EF
:1010E00008807047E849891C0880704730B5014680
:1010F00001F01F04C1F34513CA0AE50205EB4315CD
:101100001544A8B230BD00BF011EA0F10102D0B24B
:10111000FAD1704710B502460C46DC48808841F68B
:101120006311884247D1D9488079A8B9D748008847
:10113000401E801A82B2D5494889FFF7A1FF0020DE
:10114000FFF7A7FF0020FFF7A4FF1012FFF7A1FF92
:10115000D0B2FFF79EFF16E0CC494889FFF790FF19
:101160001012FFF796FFD0B2FFF793FFC749098827
:10117000491EC1F30F20FFF78CFFC4490978491EAF
:10118000C8B2FFF786FFC1498889FFF779FF2012AF
:10119000FFF77FFFE0B2FFF77CFFBC494988491E9B
:1011A000C1F30F20FFF775FFB8498978491EC8B20F
:1011B000FFF76FFF3AE0B548808845F2105188424A
:1011C00020D1B2494889FFF75BFF1012FFF761FF9A
:1011D000AE494989491C88B2FFF752FFD0B2FFF7E8
:1011E00058FFAA498889FFF74BFF2012FFF751FFEC
:1011F000A6498989491C88B2FFF742FFE0B2FFF790
:1012000048FF13E0A1494889FFF73AFF1012FFF7A2
:1012100040FFD0B2FFF73DFF9C498889FFF730FFC0
:101220002012FFF736FFE0B2FFF733FF10BD2DE9C4
:10123000F04105460E4600240027A046934800884A
:10124000A84203DD91484088B04202DC0020BDE89E
:10125000F08131462846FFF75DFF8C48808845F2D3
:101260001051884204D14FF43850FFF709FF02E0D3
:101270002E20FFF705FFFFF716FF044683488088FE
:1012800041F66311884201D12046E0E7FFF70BFFEA
:101290000446FFF708FF8046E7B24FF6FF7000EA0A
:1012A0000727E012C002B91240EA411040EAE820E4
:1012B000CDE700B57548808845F21051884204D1C9
:1012C0004FF42450FFF7DCFE02E02920FFF7D8FEA0
:1012D00000BD00B56D48808845F21051884204D1A8
:1012E0004FF42050FFF7CCFE02E02820FFF7C8FEA5
:1012F00000BDF0B505460024002764488079012828
:1013000005D16248808841F66311884208D15F4860
:101310008079F0B95D48808841F66311884218D120
:10132000082D15D2DFE805F00406080A0C0E10128D
:1013300006250DE007250BE0042509E0052507E05B
:10134000012505E0002503E0032501E0022500BF9B
:1013500000BF082D1CD2DFE805F00406090C0F12AF
:10136000151800BF14E044F0800411E044F040047C
:101370000EE044F0C0040BE044F0200408E044F028
:10138000600405E044F0A00402E044F0E00400BF83
:1013900000BF3E48808845F21051884202D14FF488
:1013A000585700E036273948808849F24131884251
:1013B00005D03648808847F28971884201D144F0CF
:1013C000080421463846FFF776FE3048808841F60B
:1013D000631188421DD004F0200068B12B480088BA
:1013E0002A494988884214DA2848068840882749CB
:1013F0000880084646800CE0244800882349498834
:10140000884206DD21480688408820490880084631
:1014100046801E48808845F21051884257D11B49AA
:101420004889FFF72DFE0020FFF733FE1749498951
:10143000491C88B2FFF724FE0020FFF72AFE13495B
:101440004989891C88B2FFF71BFE10490988491E8B
:10145000C1F30F20FFF71DFE0C494989C91C88B252
:10146000FFF70EFE09490978491EC8B2FFF711FEC1
:1014700006498889FFF704FE0020FFF70AFE0349AA
:101480008989491C88B203E07E00006CF60F0020B9
:10149000FFF7F6FD0020FFF7FCFDFE498989891C56
:1014A00088B2FFF7EDFDFB494988491EC1F30F20C3
:1014B000FFF7EFFDF7498989C91C88B2FFF7E0FD06
:1014C000F4498978491EC8B2FFF7E3FD2DE0F149E0
:1014D0004889FFF7D5FD0020FFF7DBFD0020FFF76F
:1014E000D8FDEC490988491EC1F30F20FFF7D1FD53
:1014F000E8490978491EC8B2FFF7CBFDE54988895C
:10150000FFF7BEFD0020FFF7C4FD0020FFF7C1FD7F
:10151000E0494988491EC1F30F20FFF7BAFDDD49B4
:101520008978491EC8B2FFF7B4FDF0BD30B5044656
:101530000D4629462046FFF7EDFDFFF7CEFDD648C4
:101540000088D649088030BD30B504460D46D148E4
:10155000808845F21051884220D1CE494889FFF752
:101560008FFD2012FFF795FDCA494989491C88B2B1
:10157000FFF786FDE0B2FFF78CFDC6498889FFF7CB
:101580007FFD2812FFF785FDC2498989491C88B271
:10159000FFF776FDE8B2FFF77CFD42E0BD488088AA
:1015A00041F66311884228D1BA48807920B9B948F8
:1015B0000088401E001B84B2B6494889FFF760FDD1
:1015C0002012FFF766FDE0B2FFF763FD2012FFF780
:1015D00060FDE0B2FFF75DFDAE498889FFF750FD81
:1015E0002812FFF756FDE8B2FFF753FD2812FFF768
:1015F00050FDE8B2FFF74DFD13E0A6494889FFF71B
:101600003FFD2012FFF745FDE0B2FFF742FDA14983
:101610008889FFF735FD2812FFF73BFDE8B2FFF799
:1016200038FD9C4800899D49891E08804FF0D840AC
:10163000A0F8802030BD70B52DED048B0446BE208F
:10164000FFF71EFD0520FFF724FD204604F071FE84
:1016500041EC190B9FED920B53EC102B04F07CFE28
:1016600041EC180B04F038FE85B22846FFF711FD57
:101670000120FFF70EFDFF20FFF70BFD0020FFF715
:1016800008FD0020FFF705FDBDEC048B70BD10B513
:10169000044680488471002C45D1F0207D490880A3
:1016A0004FF4A07048800846808845F21051884267
:1016B00010D14FF43050774908814FF428504881B9
:1016C0004FF42C5088814FF4F07008804FF448702C
:1016D00048801AE06F48808841F6631188420DD136
:1016E0002C206C4908812B2048812A2088814FF4C6
:1016F000F07008804FF44870488006E02C2065495F
:1017000008812A2048812B2088816248808845F200
:10171000103188424CD14FF4A0705E4908804FF4DC
:10172000F070488044E04FF4A0705A490880F020DF
:1017300048800846808845F21051884210D14FF405
:101740003050544908814FF4285048814FF42C50B0
:1017500088814FF4487008804FF4F07048801AE098
:101760004C48808841F6631188420DD12C204949AC
:1017700008812A2048812B2088814FF448700880F6
:101780004FF4F070488006E02C20424908812A205E
:1017900048812B2088813F48808845F2103188425B
:1017A00006D14FF4F0703B4908804FF4A070488098
:1017B0000020FFF79EFD10BD2DE9F04104460D46C7
:1017C0001E46A018401E87B2A819401E1FFA80F8B6
:1017D0003048808841F66311884231D12D488079A4
:1017E00001282DD02B480088801A001B84B2A8192C
:1017F000401E86B227494889FFF742FC2012FFF7B6
:1018000048FCE0B2FFF745FCA118491EC1F30F20C8
:10181000FFF73FFCA118491EC8B2FFF73AFC1D496B
:101820008889FFF72DFC2812FFF733FCE8B2FFF799
:1018300030FC3012FFF72DFCF0B2FFF72AFC79E004
:101840001448808845F21051884251D11149488985
:10185000FFF716FC2012FFF71CFC0E494989491CB2
:1018600088B2FFF70DFCE0B2FFF713FC0949498984
:10187000891C88B2FFF704FC3812FFF70AFC0549FF
:101880004989C91C88B2FFF7FBFBF8B2FFF701FCDE
:10189000004909E0F60F0020140000208000006CD1
:1018A00066666666666604408889FFF7E9FB28126B
:1018B000FFF7EFFBFD498989491C88B2FFF7E0FB80
:1018C000E8B2FFF7E6FBF9498989891C88B2FFF77E
:1018D000D7FB4FEA2820FFF7DCFBF4498989C91CB4
:1018E00088B2FFF7CDFB08F0FF00FFF7D2FB21E045
:1018F000EE494889FFF7C4FB2012FFF7CAFBE0B2AC
:10190000FFF7C7FB3812FFF7C4FBF8B2FFF7C1FBC4
:10191000E6498889FFF7B4FB2812FFF7BAFBE8B263
:10192000FFF7B7FB4FEA2820FFF7B3FB08F0FF00F3
:10193000FFF7AFFBBDE8F08170B504460026DB4839
:1019400005884088454300210846FFF7E3FBFFF781
:10195000C4FB00BF02E0D6480480761CAE42FAD336
:1019600070BD00B5A1B00020209001217A2003F0C5
:10197000EFFE0121084603F023FF4FF400401E90C4
:1019800001208DF87C0000208DF87E0002208DF86B
:101990007D0001208DF87F001EA9C64803F056F98E
:1019A0004CF233701E9002208DF87C0000208DF8E0
:1019B0007E0003208DF87D0001208DF87F001EA998
:1019C000BD4803F043F94FF680701E9002208DF859
:1019D0007C0000208DF87E0003208DF87D00012022
:1019E0008DF87F001EA9B54803F030F94FF4805000
:1019F0001E9002208DF87C0000208DF87E000320D0
:101A00008DF87D0001208DF87F001EA9AC4803F001
:101A10001DF94FF480501E9002208DF87C000020AC
:101A20008DF87E0003208DF87D0001208DF87F0069
:101A30001EA9A44803F00AF90C2200219E4803F0D5
:101A400090F90C2201219C4803F08BF90C2204210F
:101A5000994803F086F90C220521974803F081F993
:101A60000C220821944803F07CF90C2209219248A9
:101A700003F077F90C220A218F4803F072F90C2247
:101A80000E218D4803F06DF90C220F218A4803F0D6
:101A900068F90C220721894803F063F90C22082118
:101AA000864803F05EF90C220921844803F059F9B5
:101AB0000C220A21814803F054F90C220B217F48A3
:101AC00003F04FF90C2211467C4803F04AF90C222E
:101AD0000D217A4803F045F90C220E21774803F0D6
:101AE00040F90C220F21754803F03BF90C221146F6
:101AF000734803F036F90C221146724803F031F9AD
:101B00000F200890002009903C200A9000200B90A4
:101B10000C900D900E90092001900020029008205A
:101B200003900020049005900690079006200F90E7
:101B3000002010901190102012900020139015900A
:101B40001490169017904FF4805018900020199020
:101B50004FF480401A9000201B9008A81C9001A808
:101B60001D900FA803F051F90121062003F0D8F9C8
:101B7000322002F091FED320FFF782FAFFF793FAAA
:101B80004A498880FFF78FFA48498880FFF78BFA27
:101B900046498880084680884FF6FF7101EA002098
:101BA00042498880FFF77FFA4049898808433F49C6
:101BB00088800846808849F24131884275D00420E7
:101BC000FFF75EFAFFF76FFA38498880FFF76BFA84
:101BD00036498880FFF767FA34498880084680884C
:101BE0004FF6FF7101EA002030498880FFF75BFA69
:101BF0002E49898808432D4988800846808848F204
:101C00005251884203D147F2897028498880274879
:101C1000808847F289718842D0D0D420FFF730FA0B
:101C2000FFF741FA21498880FFF73DFA1F49888074
:101C3000FFF739FA1D498880084680884FF6FF7102
:101C400001EA002019498880FFF72DFA1749898891
:101C50000843164988800846808845F2103188423A
:101C600079D055214FF47040FFF725FAAA214FF2A1
:101C70000100FFF720FA52214FF20200FFF71BFA92
:101C800008214FF20300FFF716FA01214FF204007A
:101C9000FFF711FA4FF44540FFF7F2F9FFF703FAA7
:101CA00002498880084680880EE054E0F60F002044
:101CB0008000006C00040240000C02400010024052
:101CC00000140240001802404FF6FF7101EA0020A4
:101CD000FE4988804CF20150FFF7D2F9FFF7E3F993
:101CE000FA4989880843F9498880052002F0D4FD23
:101CF000F6488088B0F5004F03D145F21050F34903
:101D00008880F248808845F21051884223D0A12073
:101D1000FFF7B6F9FFF7C7F9EC498880FFF7C3F979
:101D2000EA498880084680884FF6FF7101EA002062
:101D3000E6498880FFF7B7F9E44989880843E34911
:101D400088800846808845F26171884203D141F657
:101D50006310DE498880DD48808849F2413188423D
:101D600017D0DA48808847F28971884211D0D74865
:101D7000808845F2103188420BD0D448808845F2E3
:101D80001051884205D0D148808841F663118842BD
:101D90002CD1CF48006820F00F004FF02041C1F84F
:101DA0001C010846D0F81C0120F47060C1F81C0129
:101DB0000846D0F81C0140F00300C1F81C01C348DC
:101DC000808847F28971884208D1C148006840F490
:101DD00040704FF02041C1F81C0107E0BC4800688A
:101DE00040F400704FF02041C1F81C01B7488088D2
:101DF00049F2413188427CD1CF20FFF741F90020E0
:101E0000FFF747F9C120FFF744F93020FFF741F908
:101E1000ED20FFF735F96420FFF73BF90320FFF7CA
:101E200038F91220FFF735F98120FFF732F9E82061
:101E3000FFF726F98520FFF72CF91020FFF729F985
:101E40007A20FFF726F9CB20FFF71AF93920FFF7A0
:101E500020F92C20FFF71DF90020FFF71AF9342094
:101E6000FFF717F90220FFF714F9F720FFF708F939
:101E70002020FFF70EF9EA20FFF702F90020FFF714
:101E800008F90020FFF705F9C020FFF7F9F81B203B
:101E9000FFF7FFF8C120FFF7F3F80120FFF7F9F88B
:101EA000C520FFF7EDF83020FFF7F3F83020FFF7FB
:101EB000F0F8C720FFF7E4F8B720FFF7EAF836207C
:101EC000FFF7DEF84820FFF7E4F83A20FFF7D8F8EC
:101ED0005520FFF7DEF8B120FFF7D2F80020FFF71A
:101EE000D8F81A20FFF7D5F8B620FFF7C9F80A206E
:101EF00000E099E0FFF7CDF8A220FFF7CAF8F22042
:101F0000FFF7BEF80020FFF7C4F82620FFF7B8F867
:101F10000120FFF7BEF8E020FFF7B2F80F20FFF72F
:101F2000B8F82A20FFF7B5F82820FFF7B2F8082004
:101F3000FFF7AFF80E20FFF7ACF80820FFF7A9F87D
:101F40005420FFF7A6F8A920FFF7A3F84320FFF7D6
:101F5000A0F80A20FFF79DF80F20FFF79AF800205D
:101F6000FFF797F80020FFF794F80020FFF791F8AB
:101F70000020FFF78EF8E120FFF782F80020FFF73E
:101F800088F81520FFF785F81720FFF782F807205B
:101F9000FFF77FF81120FFF77CF80620FFF779F8AC
:101FA0002B20FFF776F85620FFF773F83C20FFF759
:101FB00070F80520FFF76DF81020FFF76AF80F2082
:101FC000FFF767F83F20FFF764F83F20FFF761F85D
:101FD0000F20FFF75EF82B20FFF752F80020FFF7E5
:101FE00058F80020FFF755F80120FFF752F83F207E
:101FF000FFF74FF82A20FFF743F80020FFF749F8D2
:102000000020FFF746F80020FFF743F8EF20FFF726
:1020100040F81120FFF734F8782002F03DFC292029
:10202000FFF72EF802F0ABB82848808847F2897194
:1020300088427DD11120FFF723F8782002F02CFC94
:102040003620FFF71DF80020FFF723F83A20FFF7AE
:1020500017F80520FFF71DF8B220FFF711F80C2044
:10206000FFF717F80C20FFF714F80020FFF711F81E
:102070003320FFF70EF83320FFF70BF8B720FEF7F9
:10208000FFFF3520FFF705F8BB20FEF7F9FF3220F0
:10209000FEF7FFFFC020FEF7F3FF0C20FEF7F9FF6D
:1020A000C220FEF7EDFF0120FEF7F3FFC320FEF78D
:1020B000E7FF1020FEF7EDFFC420FEF7E1FF202030
:1020C000FEF7E7FFC620FEF7DBFF03E0F60F002078
:1020D0001C0100A00F20FEF7DCFFD020FEF7D0FF90
:1020E000A420FEF7D6FFA120FEF7D3FFE020FEF7E5
:1020F000C7FFD020FEF7CDFF0020FEF7CAFF022069
:10210000FEF7C7FF0720FEF7C4FF0A20FEF7C1FF56
:102110002820FEF7BEFF3220FEF7BBFF4420FEF76B
:10212000B8FF4220FEF7B5FF0620FEF7B2FF00E041
:102130005AE00E20FEF7ADFF1220FEF7AAFF142092
:10214000FEF7A7FF1720FEF7A4FFE120FEF798FF98
:10215000D020FEF79EFF0020FEF79BFF0220FEF737
:1021600098FF0720FEF795FF0A20FEF792FF282030
:10217000FEF78FFF3120FEF78CFF5420FEF789FF1A
:102180004720FEF786FF0E20FEF783FF1C20FEF798
:1021900080FF1720FEF77DFF1B20FEF77AFF1E2031
:1021A000FEF777FF2A20FEF76BFF0020FEF771FF96
:1021B0000020FEF76EFF0020FEF76BFFEF20FEF71A
:1021C00068FF2B20FEF75CFF0020FEF762FF002077
:1021D000FEF75FFF0120FEF75CFF3F20FEF759FF8F
:1021E0002920FEF74DFF1DE7FE48808845F210319B
:1021F000884240F07C87ED20FEF742FF0120FEF789
:1022000048FFFE20FEF745FFEE20FEF739FFDE20F7
:10221000FEF73FFF2120FEF73CFFF120FEF730FFE5
:102220000120FEF736FFDF20FEF72AFF1020FEF721
:1022300030FFC420FEF724FF8F20FEF72AFFC620C0
:10224000FEF71EFF0020FEF724FFE220FEF721FF2D
:10225000E220FEF71EFFE220FEF71BFFBF20FEF785
:102260000FFFAA20FEF715FFB020FEF709FF0D2093
:10227000FEF70FFF0020FEF70CFF0D20FEF709FF11
:102280000020FEF706FF1120FEF703FF0020FEF7F7
:1022900000FF1920FEF7FDFE0020FEF7FAFE2120C8
:1022A000FEF7F7FE0020FEF7F4FE2D20FEF7F1FE0C
:1022B0000020FEF7EEFE3D20FEF7EBFE0020FEF7CD
:1022C000E8FE5D20FEF7E5FE0020FEF7E2FE5D2061
:1022D000FEF7DFFE0020FEF7DCFEB120FEF7D0FEA9
:1022E0008020FEF7D6FE0020FEF7D3FE8B20FEF7FF
:1022F000D0FE0020FEF7CDFE9620FEF7CAFE00209D
:10230000FEF7C7FEB220FEF7BBFE0020FEF7C1FEBF
:102310000020FEF7BEFE0220FEF7BBFE0020FEF707
:10232000B8FE0320FEF7B5FE0020FEF7B2FEB32094
:10233000FEF7A6FE0020FEF7ACFE0020FEF7A9FE89
:102340000020FEF7A6FE0020FEF7A3FE0020FEF709
:10235000A0FE0020FEF79DFE0020FEF79AFE002062
:10236000FEF797FE0020FEF794FE0020FEF791FE98
:102370000020FEF78EFE0020FEF78BFE0020FEF709
:1023800088FE0020FEF785FE0020FEF782FE00207A
:10239000FEF77FFE0020FEF77CFE0020FEF779FEB0
:1023A0000020FEF776FE0020FEF773FE0020FEF709
:1023B00070FE0020FEF76DFE0020FEF76AFE002092
:1023C000FEF767FEB420FEF75BFE8B20FEF761FE92
:1023D0000020FEF75EFE9620FEF75BFE0020FEF773
:1023E00058FEA120FEF755FE0020FEF752FEB52054
:1023F000FEF746FE0220FEF74CFE0020FEF749FEE7
:102400000320FEF746FE0020FEF743FE0420FEF701
:1024100040FE0020FEF73DFEB620FEF731FE002014
:10242000FEF737FE0020FEF734FEB720FEF728FE49
:102430000020FEF72EFE0020FEF72BFE3F20FEF7C9
:1024400028FE0020FEF725FE5E20FEF722FE00207B
:10245000FEF71FFE6420FEF71CFE0020FEF719FEAB
:102460008C20FEF716FE0020FEF713FEAC20FEF7D0
:1024700010FE0020FEF70DFEDC20FEF70AFE002015
:10248000FEF707FE7020FEF704FE0020FEF701FEB7
:102490009020FEF7FEFD0020FEF7FBFDEB20FEF78F
:1024A000F8FD0020FEF7F5FDDC20FEF7F2FD002030
:1024B000FEF7EFFDB820FEF7E3FD0020FEF7E9FD93
:1024C0000020FEF7E6FD0020FEF7E3FD0020FEF70A
:1024D000E0FD0020FEF7DDFD0020FEF7DAFD002024
:1024E000FEF7D7FD0020FEF7D4FDBA20FEF7C8FDA9
:1024F0002420FEF7CEFD0020FEF7CBFD0020FEF7E6
:10250000C8FD0020FEF7C5FDC120FEF7B9FD202063
:10251000FEF7BFFD0020FEF7BCFD5420FEF7B9FD1D
:102520000020FEF7B6FDFF20FEF7B3FD0020FEF70A
:10253000B0FDC220FEF7A4FD0A20FEF7AAFD002090
:10254000FEF7A7FD0420FEF7A4FD0020FEF7A1FD85
:10255000C320FEF795FD3C20FEF79BFD0020FEF713
:1025600098FD3A20FEF795FD0020FEF792FD3920F8
:10257000FEF78FFD0020FEF78CFD3720FEF789FD6A
:102580000020FEF786FD3C20FEF783FD0020FEF7CD
:1025900080FD3620FEF77DFD0020FEF77AFD32201B
:1025A000FEF777FD0020FEF774FD2F20FEF771FD8A
:1025B0000020FEF76EFD2C20FEF76BFD0020FEF7DD
:1025C00068FD2920FEF765FD0020FEF762FD26204C
:1025D000FEF75FFD0020FEF75CFD2420FEF759FDAD
:1025E000002001E0F60F0020FEF753FD2420FEF747
:1025F00050FD0020FEF74DFD2320FEF74AFD002090
:10260000FEF747FD3C20FEF744FD0020FEF741FDAC
:102610003620FEF73EFD0020FEF73BFD3220FEF7A0
:1026200038FD0020FEF735FD2F20FEF732FD00209B
:10263000FEF72FFD2C20FEF72CFD0020FEF729FDD4
:102640002920FEF726FD0020FEF723FD2620FEF7B9
:1026500020FD0020FEF71DFD2420FEF71AFD0020BE
:10266000FEF717FD2420FEF714FD0020FEF711FDF4
:102670002320FEF70EFD0020FEF70BFDC420FEF721
:10268000FFFC6220FEF705FD0020FEF702FD05209D
:10269000FEF7FFFC0020FEF7FCFC8420FEF7F9FCAF
:1026A0000020FEF7F6FCF020FEF7F3FC0020FEF71A
:1026B000F0FC1820FEF7EDFC0020FEF7EAFCA42059
:1026C000FEF7E7FC0020FEF7E4FC1820FEF7E1FC33
:1026D0000020FEF7DEFC5020FEF7DBFC0020FEF7BA
:1026E000D8FC0C20FEF7D5FC0020FEF7D2FC17200A
:1026F000FEF7CFFC0020FEF7CCFC9520FEF7C9FCCE
:102700000020FEF7C6FCF320FEF7C3FC0020FEF716
:10271000C0FCE620FEF7BDFC0020FEF7BAFCC52099
:10272000FEF7AEFC3220FEF7B4FC0020FEF7B1FC51
:102730004420FEF7AEFC0020FEF7ABFC6520FEF760
:10274000A8FC0020FEF7A5FC7620FEF7A2FC0020E6
:10275000FEF79FFC8820FEF79CFC0020FEF799FC0A
:10276000C620FEF78DFC2020FEF793FC0020FEF72C
:1027700090FC1720FEF78DFC0020FEF78AFC01205C
:10278000FEF787FC0020FEF784FCC720FEF778FCEC
:102790000020FEF77EFC0020FEF77BFC0020FEF709
:1027A00078FC0020FEF775FCC820FEF769FC0020CD
:1027B000FEF76FFC0020FEF76CFC0020FEF769FCC2
:1027C0000020FEF766FCC920FEF75AFC0020FEF749
:1027D00060FC0020FEF75DFC0020FEF75AFC0020A4
:1027E000FEF757FC0020FEF754FC0020FEF751FCDA
:1027F0000020FEF74EFC0020FEF74BFC0020FEF709
:1028000048FC0020FEF745FC0020FEF742FC0020BB
:10281000FEF73FFC0020FEF73CFC0020FEF739FCF1
:102820000020FEF736FC0020FEF733FCE020FEF728
:1028300027FC1620FEF72DFC0020FEF72AFC1C20AA
:10284000FEF727FC0020FEF724FC2120FEF721FCE8
:102850000020FEF71EFC3620FEF71BFC0020FEF7D2
:1028600018FC4620FEF715FC0020FEF712FC522053
:10287000FEF70FFC0020FEF70CFC6420FEF709FCBD
:102880000020FEF706FC7A20FEF703FC0020FEF78E
:1028900000FC8B20FEF7FDFB0020FEF7FAFB9920E1
:1028A000FEF7F7FB0020FEF7F4FBA820FEF7F1FB94
:1028B0000020FEF7EEFBB920FEF7EBFB0020FEF751
:1028C000E8FBC420FEF7E5FB0020FEF7E2FBCA2090
:1028D000FEF7DFFB0020FEF7DCFBD220FEF7D9FB82
:1028E0000020FEF7D6FBD920FEF7D3FB0020FEF731
:1028F000D0FBE020FEF7CDFB0020FEF7CAFBF32063
:10290000FEF7C7FB0020FEF7C4FBE120FEF7B8FB93
:102910001620FEF7BEFB0020FEF7BBFB1C20FEF7D7
:10292000B8FB0020FEF7B5FB2220FEF7B2FB00202B
:10293000FEF7AFFB3620FEF7ACFB0020FEF7A9FB4D
:102940004520FEF7A6FB0020FEF7A3FB5220FEF772
:10295000A0FB0020FEF79DFB6420FEF79AFB002001
:10296000FEF797FB7A20FEF794FB0020FEF791FB21
:102970008B20FEF78EFB0020FEF78BFB9920FEF7E5
:1029800088FB0020FEF785FBA820FEF782FB0020D5
:10299000FEF77FFBB920FEF77CFB0020FEF779FBFA
:1029A000C420FEF776FB0020FEF773FBCA20FEF77B
:1029B00070FB0020FEF76DFBD220FEF76AFB0020C3
:1029C000FEF767FBD820FEF764FB0020FEF761FBF3
:1029D000E020FEF75EFB0020FEF75BFBF320FEF736
:1029E00058FB0020FEF755FBE220FEF749FB0520CF
:1029F000FEF74FFB0020FEF74CFB0B20FEF749FBD8
:102A00000020FEF746FB1B20FEF743FB0020FEF7ED
:102A100040FB3420FEF73DFB0020FEF73AFB44204C
:102A2000FEF737FB0020FEF734FB4F20FEF731FBAB
:102A30000020FEF72EFB6120FEF72BFB0020FEF7A7
:102A400028FB7920FEF725FB0020FEF722FB8820DB
:102A5000FEF71FFB0020FEF71CFB9720FEF719FB7B
:102A60000020FEF716FBA620FEF713FB0020FEF762
:102A700010FBB720FEF70DFB0020FEF70AFBC2207B
:102A8000FEF707FB0020FEF704FBC720FEF701FB63
:102A90000020FEF7FEFAD120FEF7FBFA0020FEF739
:102AA000F8FAD620FEF7F5FA0020FEF7F2FADD205C
:102AB000FEF7EFFA0020FEF7ECFAF320FEF7E9FA52
:102AC0000020FEF7E6FAE320FEF7DAFA0520FEF72B
:102AD000E0FA0020FEF7DDFA0A20FEF7DAFA00201D
:102AE000FEF7D7FA1C20FEF7D4FA0020FEF7D1FA41
:102AF0003320FEF7CEFA0020FEF7CBFA4420FEF793
:102B0000C8FA0020FEF7C5FA5020FEF7C2FA0020EE
:102B1000FEF7BFFA6220FEF7BCFA0020FEF7B9FA12
:102B20007820FEF7B6FA0020FEF7B3FA8820FEF709
:102B3000B0FA0020FEF7ADFA9720FEF7AAFA0020BF
:102B4000FEF7A7FAA620FEF7A4FA0020FEF7A1FAE6
:102B5000B720FEF79EFA0020FEF79BFAC220FEF790
:102B600098FA0020FEF795FAC720FEF792FA0020A7
:102B7000FEF78FFAD120FEF78CFA0020FEF789FAD3
:102B8000D520FEF786FA0020FEF783FADD20FEF757
:102B900080FA0020FEF77DFAF320FEF77AFA002093
:102BA000FEF777FAE420FEF76BFA0120FEF771FAE0
:102BB0000020FEF76EFA0120FEF76BFA0020FEF708
:102BC00068FA0220FEF765FA0020FEF762FA2A2072
:102BD000FEF75FFA0020FEF75CFA3C20FEF759FA98
:102BE0000020FEF756FA4B20FEF753FA0020FEF7BE
:102BF00050FA5D20FEF74DFA0020FEF74AFA7420E5
:102C0000FEF747FA0020FEF744FA8420FEF741FA67
:102C10000020FEF73EFA9320FEF73BFA0020FEF775
:102C200038FAA220FEF735FA0020FEF732FAB32078
:102C3000FEF72FFA0020FEF72CFABE20FEF729FA45
:102C40000020FEF726FAC420FEF723FA0020FEF744
:102C500020FACD20FEF71DFA0020FEF71AFAD32045
:102C6000FEF717FA0020FEF714FADD20FEF711FA3E
:102C70000020FEF70EFAF320FEF70BFA0020FEF715
:102C800008FAE520FEF7FCF90020FEF702FA002022
:102C9000FEF7FFF90020FEF7FCF90020FEF7F9F936
:102CA0000220FEF7F6F90020FEF7F3F92920FEF7DF
:102CB000F0F90020FEF7EDF93C20FEF7EAF90020DC
:102CC000FEF7E7F94B20FEF7E4F90020FEF7E1F903
:102CD0005D20FEF7DEF90020FEF7DBF97420FEF739
:102CE000D8F90020FEF7D5F98420FEF7D2F90020AC
:102CF000FEF7CFF99320FEF7CCF90020FEF7C9F9D3
:102D0000A220FEF7C6F90020FEF7C3F9B320FEF7B4
:102D1000C0F90020FEF7BDF9BE20FEF7BAF9002089
:102D2000FEF7B7F9C420FEF7B4F90020FEF7B1F9B9
:102D3000CD20FEF7AEF90020FEF7ABF9D320FEF769
:102D4000A8F90020FEF7A5F9DC20FEF7A2F9002083
:102D5000FEF79FF9F320FEF79CF90020FEF799F9A2
:102D6000E620FEF78DF91120FEF793F90020FEF71B
:102D700090F93420FEF78DF90020FEF78AF95620ED
:102D8000FEF787F90020FEF784F97620FEF781F937
:102D90000020FEF77EF97720FEF77BF90020FEF792
:102DA00078F96620FEF775F90020FEF772F98820A1
:102DB000FEF76FF90020FEF76CF99920FEF769F92C
:102DC0000020FEF766F9BB20FEF763F90020FEF74E
:102DD00060F99920FEF75DF90020FEF75AF96620A8
:102DE000FEF757F90020FEF754F95520FEF751F988
:102DF0000020FEF74EF95520FEF74BF90020FEF7B4
:102E000048F94520FEF745F90020FEF742F9432036
:102E1000FEF73FF90020FEF73CF94420FEF739F9B0
:102E20000020FEF736F9E720FEF72AF93220FEF7F8
:102E300030F90020FEF72DF95520FEF72AF9002081
:102E4000FEF727F97620FEF724F90020FEF721F996
:102E50006620FEF71EF90020FEF71BF96720FEF73B
:102E600018F90020FEF715F96720FEF712F9002087
:102E7000FEF70FF98720FEF70CF90020FEF709F99D
:102E80009920FEF706F90020FEF703F9BB20FEF7B4
:102E900000F90020FEF7FDF89920FEF7FAF800206F
:102EA000FEF7F7F87720FEF7F4F80020FEF7F1F8C8
:102EB0004420FEF7EEF80020FEF7EBF85620FEF770
:102EC000E8F80020FEF7E5F82320FEF7E2F80020FE
:102ED000FEF7DFF83320FEF7DCF80020FEF7D9F824
:102EE0004520FEF7D6F80020FEF7D3F8E820FEF7DD
:102EF000C7F80020FEF7CDF80020FEF7CAF89920A9
:102F0000FEF7C7F80020FEF7C4F88720FEF7C1F8E7
:102F10000020FEF7BEF88820FEF7BBF80020FEF781
:102F2000B8F87720FEF7B5F80020FEF7B2F8662073
:102F3000FEF7AFF80020FEF7ACF88820FEF7A9F8FE
:102F40000020FEF7A6F8AA20FEF7A3F80020FEF75F
:102F5000A0F8BB20FEF79DF80020FEF79AF8992014
:102F6000FEF797F80020FEF794F86620FEF791F838
:102F70000020FEF78EF85520FEF78BF80020FEF7B4
:102F800088F85520FEF785F80020FEF782F84420E7
:102F9000FEF77FF80020FEF77CF84420FEF779F872
:102FA0000020FEF776F85520FEF773F80020FEF7B4
:102FB00070F8E920FEF764F8AA20FEF76AF800200E
:102FC000FEF767F80020FEF764F80020FEF761F8CE
:102FD0000020FEF755F8AA20FEF75BF8CF20FEF799
:102FE0004FF80020FEF755F80020FEF752F80020B9
:102FF000FEF74FF80020FEF74CF80020FEF749F8E6
:103000000020FEF746F80020FEF743F80020FEF708
:1030100040F80020FEF73DF80020FEF73AF80020C7
:10302000FEF737F80020FEF734F80020FEF731F8FD
:103030000020FEF72EF80020FEF72BF80020FEF708
:1030400028F80020FEF725F8F020FEF719F80020F8
:10305000FEF71FF85020FEF71CF80020FEF719F8C5
:103060000020FEF716F80020FEF713F8F320FEF715
:1030700007F80020FEF70DF8F920FEF701F806200A
:10308000FEF707F81020FEF704F82920FEF701F8F4
:103090000020FDF7FEFF3A20FDF7F2FF5520FDF777
:1030A000F8FF1120FDF7ECFF642001F0F5FB29206B
:1030B000FDF7E6FF3520FDF7E3FF0020FDF7E9FF10
:1030C0005120FDF7DDFFFF20FDF7E3FF5320FDF763
:1030D000D7FF2C20FDF7DDFF5520FDF7D1FF822023
:1030E000FDF7D7FF2C20FDF7CBFF01F048B8FE48D5
:1030F000808845F2105188427ED155214FF47040AE
:10310000FDF7D9FFAA214FF20100FDF7D4FF5221AC
:103110004FF20200FDF7CFFF08214FF20300FDF749
:10312000CAFF01214FF20400FDF7C5FF0D214FF446
:103130003040FDF7C0FF0D214BF20100FDF7BBFF52
:103140000D214BF20200FDF7B6FF34214FF436405B
:10315000FDF7B1FF34214BF20160FDF7ACFF3421E4
:103160004BF20260FDF7A7FF0D214FF43140FDF750
:10317000A2FF0D214BF20110FDF79DFF0D214BF237
:103180000210FDF798FF34214FF43740FDF793FF0D
:1031900034214BF20170FDF78EFF34214BF20270A7
:1031A000FDF789FF00214FF43240FDF784FF002135
:1031B0004BF20120FDF77FFF00214BF20220FDF7CB
:1031C0007AFF24214FF43840FDF775FF24214BF698
:1031D0000100FDF770FF24214BF60200FDF76BFFA5
:1031E00001214FF43F40FDF766FF0F214FF43340BC
:1031F000FDF761FF0F2100E0FEE34BF20130FDF728
:103200005AFF0F214BF20230FDF755FF34214FF4E6
:103210003940FDF750FF34214BF60110FDF74BFF0D
:1032200034214BF60210FDF746FF08214FF43540DC
:10323000FDF741FF08214BF20150FDF73CFF08214B
:103240004BF20250FDF737FF03214FF44240FDF7E8
:1032500032FF24214FF43A40FDF72DFF24214BF695
:103260000120FDF728FF24214BF60220FDF723FF64
:1032700000214FF43C40FDF71EFF78214BF6014042
:10328000FDF719FF00214BF60240FDF714FF002166
:103290004FF43D40FDF70FFF78214BF60150FDF74D
:1032A0000AFF00214BF60250FDF705FF00214FF405
:1032B0003E40FDF700FF64214BF60160FDF7FBFE89
:1032C00000214FF45140FDF7F6FE33214DF201107D
:1032D000FDF7F1FE00214DF20210FDF7ECFE342166
:1032E0004DF20310FDF7E7FE00214DF20410FDF74B
:1032F000E2FE3A214DF20510FDF7DDFE00214DF210
:103300000610FDF7D8FE4A214DF20710FDF7D3FE57
:1033100000214DF20810FDF7CEFE5C214DF20910A0
:10332000FDF7C9FE00214DF20A10FDF7C4FE812110
:103330004DF20B10FDF7BFFE00214DF20C10FDF712
:10334000BAFEA6214DF20D10FDF7B5FE00214DF29B
:103350000E10FDF7B0FEE5214DF20F10FDF7ABFEAC
:1033600001214DF21010FDF7A6FE13214DF21110B0
:10337000FDF7A1FE01214DF21210FDF79CFE542134
:103380004DF21310FDF797FE01214DF21410FDF7D9
:1033900092FE82214DF21510FDF78DFE01214DF2B6
:1033A0001610FDF788FECA214DF21710FDF783FEB7
:1033B00002214DF21810FDF77EFE00214DF219108A
:1033C000FDF779FE02214DF21A10FDF774FE01217E
:1033D0004DF21B10FDF76FFE02214DF21C10FDF7A0
:1033E0006AFE34214DF21D10FDF765FE02214DF2FB
:1033F0001E10FDF760FE67214DF21F10FDF75BFE0A
:1034000002214DF22010FDF756FE84214DF22110CD
:10341000FDF751FE02214DF22210FDF74CFEA421D2
:103420004DF22310FDF747FE02214DF22410FDF767
:1034300042FEB7214DF22510FDF73DFE02214DF26F
:103440002610FDF738FECF214DF22710FDF733FE91
:1034500002214DF22810FDF72EFEDE214DF229103B
:10346000FDF729FE02214DF22A10FDF724FEF2217C
:103470004DF22B10FDF71FFE02214DF22C10FDF72F
:103480001AFEFE214DF22D10FDF715FE03214DF21F
:103490002E10FDF710FE10214DF22F10FDF70BFE40
:1034A00003214DF23010FDF706FE33214DF23110AD
:1034B000FDF701FE03214DF23210FDF7FCFD6D21F9
:1034C0004DF23310FDF7F7FD00214FF45240FDF7A8
:1034D000F2FD33214DF20120FDF7EDFD00214DF20B
:1034E0000220FDF7E8FD01E0F60F002034214DF247
:1034F0000320FDF7E0FD00214DF20420FDF7DBFD88
:103500003A214DF20520FDF7D6FD00214DF20620AF
:10351000FDF7D1FD4A214DF20720FDF7CCFD00213A
:103520004DF20820FDF7C7FD5C214DF20920FDF7A3
:10353000C2FD00214DF20A20FDF7BDFD81214DF2B3
:103540000B20FDF7B8FD00214DF20C20FDF7B3FD77
:10355000A6214DF20D20FDF7AEFD00214DF20E200B
:10356000FDF7A9FDE5214DF20F20FDF7A4FD012196
:103570004DF21020FDF79FFD13214DF21120FDF7B4
:103580009AFD01214DF21220FDF795FD54214DF2D7
:103590001320FDF790FD01214DF21420FDF78BFD66
:1035A00082214DF21520FDF786FD01214DF21620F6
:1035B000FDF781FDCA214DF21720FDF77CFD0221A8
:1035C0004DF21820FDF777FD00214DF21920FDF78F
:1035D00072FD02214DF21A20FDF76DFD01214DF221
:1035E0001B20FDF768FD02214DF21C20FDF763FD55
:1035F00034214DF21D20FDF75EFD02214DF21E200B
:10360000FDF759FD67214DF21F20FDF754FD022102
:103610004DF22020FDF74FFD84214DF22120FDF7D2
:103620004AFD02214DF22220FDF745FDA4214DF275
:103630002320FDF740FD02214DF22420FDF73BFD44
:10364000B7214DF22520FDF736FD02214DF226204F
:10365000FDF731FDCF214DF22720FDF72CFD022192
:103660004DF22820FDF727FDDE214DF22920FDF740
:1036700022FD02214DF22A20FDF71DFDF2214DF21F
:103680002B20FDF718FD02214DF22C20FDF713FD34
:10369000FE214DF22D20FDF70EFD03214DF22E20CF
:1036A000FDF709FD10214DF22F20FDF704FD032148
:1036B0004DF23020FDF7FFFC33214DF23120FDF7B4
:1036C000FAFC03214DF23220FDF7F5FC6D214DF29D
:1036D0003320FDF7F0FC00214FF45340FDF7EBFCE5
:1036E00033214DF20130FDF7E6FC00214DF20230AE
:1036F000FDF7E1FC34214DF20330FDF7DCFC002145
:103700004DF20430FDF7D7FC3A214DF20530FDF7BC
:10371000D2FC00214DF20630FDF7CDFC4A214DF2DE
:103720000730FDF7C8FC00214DF20830FDF7C3FC5F
:103730005C214DF20930FDF7BEFC00214DF20A304C
:10374000FDF7B9FC81214DF20B30FDF7B4FC0021EF
:103750004DF20C30FDF7AFFCA6214DF20D30FDF718
:10376000AAFC00214DF20E30FDF7A5FCE5214DF23B
:103770000F30FDF7A0FC01214DF21030FDF79BFC4E
:1037800013214DF21130FDF796FC01214DF212305C
:10379000FDF791FC54214DF21330FDF78CFC012113
:1037A0004DF21430FDF787FC82214DF21530FDF704
:1037B00082FC01214DF21630FDF77DFCCA214DF24D
:1037C0001730FDF778FC02214DF21830FDF773FC3D
:1037D00000214DF21930FDF76EFC02214DF21A3036
:1037E000FDF769FC01214DF21B30FDF764FC02215D
:1037F0004DF21C30FDF75FFC34214DF21D30FDF71A
:103800005AFC02214DF21E30FDF755FC67214DF2A6
:103810001F30FDF750FC02214DF22030FDF74BFC2C
:1038200084214DF22130FDF746FC02214DF2223079
:10383000FDF741FCA4214DF22330FDF73CFC0221B1
:103840004DF22430FDF737FCB7214DF22530FDF75E
:1038500032FC02214DF22630FDF72DFCCF214DF236
:103860002730FDF728FC02214DF22830FDF723FC1C
:10387000DE214DF22930FDF71EFC02214DF22A30E7
:10388000FDF719FCF2214DF22B30FDF714FC02215B
:103890004DF22C30FDF70FFCFE214DF22D30FDF7DF
:1038A0000AFC03214DF22E30FDF705FC10214DF2EC
:1038B0002F30FDF700FC03214DF23030FDF7FBFB0C
:1038C00033214DF23130FDF7F6FB03214DF232305A
:1038D000FDF7F1FB6D214DF23330FDF7ECFB0021DC
:1038E0004FF45440FDF7E7FB33214DF20140FDF763
:1038F000E2FB00214DF20240FDF7DDFB34214DF2E9
:103900000340FDF7D8FB00214DF20440FDF7D3FB47
:103910003A214DF20540FDF7CEFB00214DF2064065
:10392000FDF7C9FB4A214DF20740FDF7C4FB00211A
:103930004DF20840FDF7BFFB5C214DF20940FDF759
:10394000BAFB00214DF20A40FDF7B5FB81214DF293
:103950000B40FDF7B0FB00214DF20C40FDF7ABFB37
:10396000A6214DF20D40FDF7A6FB00214DF20E40C1
:10397000FDF7A1FBE5214DF20F40FDF79CFB012176
:103980004DF21040FDF797FB13214DF21140FDF76A
:1039900092FB01214DF21240FDF78DFB54214DF2B7
:1039A0001340FDF788FB01214DF21440FDF783FB26
:1039B00082214DF21540FDF77EFB01214DF21640AC
:1039C000FDF779FBCA214DF21740FDF774FB022188
:1039D0004DF21840FDF76FFB00214DF21940FDF745
:1039E0006AFB02214DF21A40FDF765FB01214DF201
:1039F0001B40FDF760FB00E003E302214DF21C4099
:103A0000FDF759FB34214DF21D40FDF754FB022117
:103A10004DF21E40FDF74FFB67214DF21F40FDF7B1
:103A20004AFB02214DF22040FDF745FB84214DF277
:103A30002140FDF740FB02214DF22240FDF73BFB08
:103A4000A4214DF22340FDF736FB02214DF2244024
:103A5000FDF731FBB7214DF22540FDF72CFB02218C
:103A60004DF22640FDF727FBCF214DF22740FDF711
:103A700022FB02214DF22840FDF71DFBDE214DF215
:103A80002940FDF718FB02214DF22A40FDF713FBF8
:103A9000F2214DF22B40FDF70EFB02214DF22C409E
:103AA000FDF709FBFE214DF22D40FDF704FB03213C
:103AB0004DF22E40FDF7FFFA10214DF22F40FDF799
:103AC000FAFA03214DF23040FDF7F5FA33214DF2B9
:103AD0003140FDF7F0FA03214DF23240FDF7EBFAE9
:103AE0006D214DF23340FDF7E6FA00214FF45540C9
:103AF000FDF7E1FA33214DF20150FDF7DCFA002128
:103B00004DF20250FDF7D7FA34214DF20350FDF784
:103B1000D2FA00214DF20450FDF7CDFA3A214DF2D0
:103B20000550FDF7C8FA00214DF20650FDF7C3FA23
:103B30004A214DF20750FDF7BEFA00214DF2085020
:103B4000FDF7B9FA5C214DF20950FDF7B4FA0021F6
:103B50004DF20A50FDF7AFFA81214DF20B50FDF7FF
:103B6000AAFA00214DF20C50FDF7A5FAA6214DF25C
:103B70000D50FDF7A0FA00214DF20E50FDF79BFA13
:103B8000E5214DF20F50FDF796FA01214DF210504C
:103B9000FDF791FA13214DF21150FDF78CFA012136
:103BA0004DF21250FDF787FA54214DF21350FDF7F4
:103BB00082FA01214DF21450FDF77DFA82214DF277
:103BC0001550FDF778FA01214DF21650FDF773FA02
:103BD000CA214DF21750FDF76EFA02214DF218502E
:103BE000FDF769FA00214DF21950FDF764FA022140
:103BF0004DF21A50FDF75FFA01214DF21B50FDF70F
:103C00005AFA02214DF21C50FDF755FA34214DF2BB
:103C10001D50FDF750FA02214DF21E50FDF74BFAF0
:103C200067214DF21F50FDF746FA02214DF2205058
:103C3000FDF741FA84214DF22150FDF73CFA0221B3
:103C40004DF22250FDF737FAA4214DF22350FDF733
:103C500032FA02214DF22450FDF72DFAB7214DF230
:103C60002550FDF728FA02214DF22650FDF723FAE0
:103C7000CF214DF22750FDF71EFA02214DF22850B8
:103C8000FDF719FADE214DF22950FDF714FA022151
:103C90004DF22A50FDF70FFAF2214DF22B50FDF7AD
:103CA0000AFA02214DF22C50FDF705FAFE214DF2E1
:103CB0002D50FDF700FA03214DF22E50FDF7FBF9D0
:103CC00010214DF22F50FDF7F6F903214DF230503F
:103CD000FDF7F1F933214DF23150FDF7ECF90321F5
:103CE0004DF23250FDF7E7F96D214DF23350FDF7FB
:103CF000E2F900214FF45640FDF7DDF933214DF292
:103D00000160FDF7D8F900214DF20260FDF7D3F90B
:103D100034214DF20360FDF7CEF900214DF204602D
:103D2000FDF7C9F93A214DF20560FDF7C4F900210C
:103D30004DF20660FDF7BFF94A214DF20760FDF72D
:103D4000BAF900214DF20860FDF7B5F95C214DF29A
:103D50000960FDF7B0F900214DF20A60FDF7ABF9FB
:103D600081214DF20B60FDF7A6F900214DF20C60A8
:103D7000FDF7A1F9A6214DF20D60FDF79CF9002198
:103D80004DF20E60FDF797F9E5214DF20F60FDF75A
:103D900092F901214DF21060FDF78DF913214DF2DA
:103DA0001160FDF788F901214DF21260FDF783F9EA
:103DB00054214DF21360FDF77EF901214DF214609C
:103DC000FDF779F982214DF21560FDF774F90121B3
:103DD0004DF21660FDF76FF9CA214DF21760FDF73D
:103DE0006AF902214DF21860FDF765F900214DF2E4
:103DF0001960FDF760F902214DF21A60FDF75BF9D9
:103E000001214DF21B60FDF756F902214DF21C60B5
:103E1000FDF751F934214DF21D60FDF74CF90221F7
:103E20004DF21E60FDF747F967214DF21F60FDF767
:103E300042F902214DF22060FDF73DF984214DF257
:103E40002160FDF738F902214DF22260FDF733F9C8
:103E5000A4214DF22360FDF72EF902214DF22460DA
:103E6000FDF729F9B7214DF22560FDF724F902216C
:103E70004DF22660FDF71FF9CF214DF22760FDF7C7
:103E80001AF902214DF22860FDF715F9DE214DF2F5
:103E90002960FDF710F902214DF22A60FDF70BF9B8
:103EA000F2214DF22B60FDF706F902214DF22C6054
:103EB000FDF701F9FE214DF22D60FDF7FCF803211D
:103EC0004DF22E60FDF7F7F810214DF22F60FDF74F
:103ED000F2F803214DF23060FDF7EDF833214DF299
:103EE0003160FDF7E8F803214DF23260FDF7E3F8A9
:103EF0006D214DF23360FDF7DEF855214FF470402F
:103F0000FDF7D9F8AA214FF20100FDF7D4F85221AC
:103F10004FF20200FDF7CFF808214FF20300FDF742
:103F2000CAF800214FF20400FDF7C5F8CC214FF488
:103F30003140FDF7C0F800214BF20110FDF7BBF84E
:103F400005214FF43640FDF7B6F870214FF43740A5
:103F5000FDF7B1F870214BF20170FDF7ACF80121CB
:103F60004FF43840FDF7A7F803214BF60100FDF7A9
:103F7000A2F803214BF60200FDF79DF803214BF652
:103F80000300FDF798F802214FF43C40FDF793F849
:103F900000214BF60140FDF78EF800214BF6024060
:103FA000FDF789F8D0214FF44940FDF784F802214C
:103FB0004CF60110FDF77FF850214CF60210FDF78A
:103FC0007AF850214CF60310FDF775F850214CF6A5
:103FD0000410FDF770F800214FF45450FDF76BF812
:103FE00055214FF46850FDF766F84FF48850FDF7FF
:103FF00047F8782000F008FC4FF42450FDF740F813
:10400000BDE0FE48808841F663118842F8D1E22085
:10401000FDF736F81D20FDF73CF80220FDF739F8D2
:104020000420FDF736F8642000F0EEFBE020FDF7F9
:1040300027F80120FDF72DF80A2000F02DFCE020E4
:10404000FDF71EF80320FDF724F80C2000F024FCF7
:104050000120FDF715F80A2000F01EFCE620FDF710
:104060000FF82F20FDF715F8FF20FDF712F8FF20BD
:10407000FDF70FF8B020FDF703F82020FDF709F851
:104080000020FDF706F80320FDF703F840F21F308B
:10409000FCF7FFFF0120FCF7FCFF40F2DF10FCF70C
:1040A000F8FF0020FCF7F5FFB420FCF7E9FF04203F
:1040B000FCF7EFFF40F21F40FCF7EBFF0020FCF79E
:1040C000E8FF2E20FCF7E5FF0020FCF7E2FF0020D0
:1040D000FCF7DFFF0020FCF7DCFF0020FCF7D9FF36
:1040E000B620FCF7CDFF0220FCF7D3FF4FF403709E
:1040F000FCF7CFFF0020FCF7CCFF1720FCF7C9FF2F
:104100001520FCF7C6FF0020FCF7C3FF0020FCF7DA
:10411000C0FFF020FCF7B4FF0320FCF7BAFF292012
:10412000FCF7AEFFD020FCF7ABFF0020FCF7B1FF9F
:10413000BE20FCF7A5FF0520FCF7ABFFFE20FCF737
:10414000A8FF0120FCF7A5FF0020FCF7A2FF00203C
:10415000FCF79FFF0020FCF79CFFB820FCF790FFC6
:104160000320FCF796FF0120FCF793FFBA20FCF731
:1041700087FF0120FCF78DFF6420FDF75CFA00202B
:10418000FDF785FA01209E4908604FF6FF70FDF7A4
:10419000D3FB21B000BD2DE9F04F05460E46174672
:1041A0009846DDF824A04FF0000B781B401C1FFA46
:1041B00080FB344614E021462846FCF7ABFFFCF7B1
:1041C0008CFF4FF0000907E04FF0D840A0F880A026
:1041D00009F101001FFA80F9D945F5DB601C84B2B2
:1041E0004445E8DDBDE8F08F2DE9F84F07460D4660
:1041F00090469946DDF828B0A8EB0700401C1FFA4E
:1042000080FAA9EB0500401C80B20090002414E065
:10421000281981B23846FCF77DFFFCF75EFF0026C7
:1042200007E004FB0A603BF8100076490880701C28
:1042300086B25645F5DB601C84B200988442E7DB09
:10424000BDE8F88F2DE9FF4F84B081468A460020F3
:10425000039002900698A0EB09050798A0EB0A06C8
:10426000CDF80490CDF800A0002D01DD012705E078
:104270000DB9002702E04FF0FF376D42002E02DD3E
:104280004FF0010806E016B94FF0000802E04FF0C9
:10429000FF387642B54201DD2C4600E034464FF04F
:1042A000000B21E0009A91B2019A90B2FDF73EF91D
:1042B0000398284403900298304402900398A04247
:1042C00005DD0398001B0390019838440190029883
:1042D000A04205DD0298001B029000984044009027
:1042E0000BF101001FFA80FB601C8345DADD08B08A
:1042F000BDE8F08FF0B504460D4616461F462B4626
:10430000324629462046FFF79DFF3B462246294676
:104310002046FFF797FF3B46324639462046FFF7D7
:1043200091FF3B46324629463046FFF78BFFF0BDF2
:104330002DE9F04306460F469046002445460320EB
:10434000A0EB48093CE07A1B91B2321990B2FDF71C
:10435000EDF83A1B91B2721990B2FDF7E7F83A19ED
:1043600091B2721990B2FDF7E1F87A1991B232194F
:1043700090B2FDF7DBF87A1991B2321B90B2FDF7DB
:10438000D5F83A1991B2721B90B2FDF7CFF87A1BAB
:1043900091B2321B90B2FDF7C9F83A1B91B2721B71
:1043A00090B2FDF7C3F8641CB9F1000F03DAA00066
:1043B000801D814404E0601B80000A3081446D1E32
:1043C000AC42C0DDBDE8F0832DE9F84F80460E46D3
:1043D00017461C46B3462046E31704EB5373DB1025
:1043E00021464FEAE47C04EB5C7C4FEAEC0CA4EB46
:1043F000CC0CBCF1000F0AD006E00000F60F002044
:10440000BC8240428000006C4FF0010C01E04FF094
:10441000000C6344224604EBD27C4FEA6C0C03FB95
:104420000CF3DBB20093A7F12000C7B2002556E0E1
:104430000C2C07D107EB47009F4901EB800010F8D7
:10444000059013E0102C05D19C4800EB071010F8E4
:1044500005900BE0182C07D107EBC700984901EB3A
:10446000800010F8059001E0BDE8F88F4FF0000AD9
:104470002FE009F0800030B1924802883146404672
:10448000FDF762F807E00A9828B98F48028831469C
:104490004046FDF759F84FEA49604FEA1069701C31
:1044A00086B28A484088B04200DCDDE7A6EB0B000C
:1044B000A0420AD15E4608F101001FFA80F8834845
:1044C0000088404500DCCFE706E00AF1010000F07B
:1044D000FF0ABAF1080FCCDB00BF681CC5B2009818
:1044E0008542A5DB00BFBFE710B50246012000E012
:1044F00050430B1EA1F10104E1B2F9D110BD2DE929
:10450000FF4F81B0074691461E460E9D4FF0000AB0
:10451000002439E0301B401EC1B20A20FFF7E4FF3F
:10452000B9FBF0F00A21B0FBF1F201FB1208BAF17D
:10453000000F16D1701EA04213DDB8F1000F0ED18E
:104540000020AB4605EBDB71491001FB04710090C4
:1045500088B22B4620220299FFF736FF12E04FF077
:10456000010A0020AB4605EBDB71491001FB047129
:10457000009088B208F13001CAB22B460299FFF7C9
:1045800023FF00BF601CC4B2B442C3DB05B0BDE86A
:10459000F08F2DE9FF4F82B0064692461F46DDE9B7
:1045A0000F480020019000254DE0781B401EC1B24D
:1045B0000A20FFF799FFBAFBF0F00A21B0FBF1F2F5
:1045C00001FB1209019850BB781EA84227DDB9F102
:1045D000000F22D108F0800078B108F00100A34656
:1045E00004EBDB71491001FB0561009088B22346A2
:1045F00030220399FFF7E8FE0EE008F00100A34621
:1046000004EBDB71491001FB0561009088B2234681
:1046100020220399FFF7D8FE13E00120019008F053
:104620000100A34604EBDB71491001FB056100901A
:1046300088B209F13001CAB223460399FFF7C4FEDC
:1046400000BF681CC5B2BD42AFDB06B0BDE8F08F4D
:104650002DE9F84704460D4690469946DDE909677D
:1046600004F0FF0A08EB04001FFA80F809EB0500CC
:104670001FFA80F916E0444502DB5446A81985B2BA
:104680004D4500DB14E0002000903A78334629467F
:104690002046FFF799FE304606EBD07104EB61012E
:1046A0008CB27F1C38787E2802DC38782028E2DA49
:1046B00000BFBDE8F88700005E650008D269000809
:1046C000C26F00081400002016000020F60F002022
:1046D0001CB50121112001F03BF81C2000900020A6
:1046E0008DF8040003208DF8050001208DF80700E7
:1046F0006946354800F0AAFA0120009002208DF8A2
:1047000007006946314800F0A1FA1CBD10B5044607
:1047100014B101202E4908702D480078002837D0A8
:104720001021294800F0F4FA78B10821264800F059
:10473000EFFA50B10421244800F0EAFA28B101212F
:10474000224800F0E5FA012822D10A2000F0A4F85E
:1047500000201F49087010211B4800F0D9FA08B941
:10476000012010BD0821184800F0D2FA08B9022033
:10477000F7E70421144800F0CBFA08B90320F0E76A
:104780000121124800F0C4FA01281BD10420E8E7F7
:1047900010210D4800F0BCFA012813D108210A4865
:1047A00000F0B6FA01280DD10421074800F0B0FA54
:1047B000012807D10121054800F0AAFA10B901200B
:1047C000034908700020CCE70010024000000240BE
:1047D0001800002010B504466FF0040000F092F9B4
:1047E000E11704EB5171C1F3C701394A117010464A
:1047F000007800EB4001C1EBC0104FF6FF7101EAF9
:10480000C0003449088010BD0146314A12784A433D
:104810004FF0E0235A6100229A611A46126942F071
:1048200001021A6100BF4FF0E022106900F001029E
:104830001AB100F48032002AF5D04FF0E02212695C
:1048400022F001024FF0E0231A6100229A617047C2
:104850000146204A12884A434FF0E0235A61002261
:104860009A611A46126942F001021A6100BF4FF0C4
:10487000E022106900F001021AB100F48032002A2F
:10488000F5D04FF0E022126922F001024FF0E02350
:104890001A6100229A61704770B504464FF40770A0
:1048A00094FBF0F0C6B24FF4077094FBF0F100FBFC
:1048B000114085B205E04FF40770FFF7C9FF701E85
:1048C000C6B2002EF7D115B12846FFF7C1FF70BD63
:1048D0001A0000201C00002000BF704700BF4C4A97
:1048E000128802F04002002AF9D0C2B2484B9A80E6
:1048F000704710B588B004460121084600F028FF33
:104900000121102000F07EFF07220921414800F01C
:1049100028FA07220A213F4800F023FA4FF4C0602A
:10492000069002208DF81C008DF81D0000208DF8E7
:104930001E0001208DF81F0006A9364800F086F9F8
:1049400002940020ADF80C00ADF80E00ADF8100098
:10495000ADF814000C20ADF8120002A92C4801F0AB
:10496000B2F801212A4801F036F9012240F225511E
:10497000274801F0E6F925208DF8040003208DF882
:1049800005008DF8060001208DF8070001A800F051
:104990006CF808B010BD10B540F225511C4801F06C
:1049A0000BFA10B31A4801F045F9C4B21A4800884E
:1049B00000F40040C8B91848008800F4804060B195
:1049C0000A2C03D000201449088020E012480088F7
:1049D00040F400401049088019E00D2C06D10E4823
:1049E000008840F480400C49088010E00A480088A4
:1049F000C0F30D0009490C5407480088401C0649C3
:104A0000088008460088C72801DD0020088010BD06
:104A1000001001400000024024000020041000208B
:104A20000948804709480047FEE7FEE7FEE7FEE742
:104A3000FEE7FEE7FEE7FEE7FEE7FEE7044805497E
:104A4000054A064B70470000290300088901000849
:104A500030110020301700203013002030130020C8
:104A600032490143324A1160704770B5002100237A
:104A70000F22C4781CB32E4C246804F4E064C4F5FF
:104A8000E064C4F30721C1F10404E3B20A414478AD
:104A90009C40E1B28478144021430C07210E254C40
:104AA00005786155047804F01F050124AC400578B1
:104AB0006D11AD0005F1E025C5F8004109E004786D
:104AC00004F01F050124AC401B4D0678761145F813
:104AD000264070BD194A0A400243154B1B1F1A603D
:104AE000704739B1124A121D12680243104B1B1D48
:104AF0001A6006E00E4A121D126882430C4B1B1D01
:104B00001A607047042808D14FF0E021096941F08C
:104B100004014FF0E022116107E04FF0E021096944
:104B200021F004014FF0E022116170470000FA0506
:104B30000CED00E000E400E080E100E080FFFF1FFA
:104B400010B504469848844208D10121084600F077
:104B50006AFE0021012000F066FE76E09348844260
:104B600008D10121022000F05EFE0021022000F0A9
:104B70005AFE6AE08E48844208D10121042000F0E8
:104B800052FE0021042000F04EFE5EE0894884427F
:104B900008D10121082000F046FE0021082000F085
:104BA00042FE52E08448844208D10121102000F0E6
:104BB0003AFE0021102000F036FE46E07F48844295
:104BC00008D10121202000F02EFE0021202000F03D
:104BD0002AFE3AE07A48844208D10121402000F0C0
:104BE00022FE0021402000F01EFE2EE07548844287
:104BF00008D10121802000F016FE0021802000F065
:104C000012FE22E07048844208D10121801500F094
:104C10000AFE0021A01500F006FE16E06B48844253
:104C200008D10121401500F0FEFD0021601500F0C3
:104C3000FAFD0AE06648844207D10121001500F020
:104C4000F2FD0021201500F0EEFD10BDF0B50A4682
:104C500000210023002400BF3DE0012505FA01F3F7
:104C6000156805EA03049C4234D105684F00032609
:104C7000BE40B543056015794E00B5400668354322
:104C800005601579012D02D01579022D16D18568A0
:104C90004F000326BE40B543856055794E00B540B0
:104CA000866835438560456801268E40B54345607A
:104CB000456896798E40B6B235434560C5684F0069
:104CC0000326BE40B543C560D5794E00B540C668E1
:104CD0003543C560491C1029BFD3F0BD4FF6FF71A5
:104CE00001600021017141718171C171704708B586
:104CF0004FF480320092009A0A430092009AC261F7
:104D0000C161009AC261C2690092C269009208BD85
:104D10000246002013690B400BB1012000E0002087
:104D200070470146086980B2704702460020536907
:104D30000B400BB1012000E000207047014648699C
:104D400080B2704701837047418370470AB1018385
:104D500000E0418370474161704742694A404261C7
:104D60007047F0B5002300244D07ED0E02FA05F35D
:104D7000CE1000F1200555F826504E07F70E0F26ED
:104D8000BE40B543CF1000F1200646F82750CE10A4
:104D900000F1200555F8265045EA0304CE1000F135
:104DA000200545F82640F0BD000002400004024006
:104DB00000080240000C02400010024000140240B3
:104DC00000180240001C0240002002400024024063
:104DD0000028024030B943F2DB028100A1F1C0415A
:104DE0000A6005E043F2D2028100A1F1C0410A60ED
:104DF0006FF07042411C8900A1F1C0410A6081003E
:104E0000A1F1C041C1F804217047D0E9011211435A
:104E1000C268114302691143426911438269114317
:104E2000C2691143026A1143426A1143826A114303
:104E3000C26A1143026B114302689200A2F1C042A0
:104E40001160816808290BD101688900A1F1C04176
:104E5000096841F0400201688900A1F1C0410A607F
:104E6000416B0968426B526841EA0211426B9268D9
:104E700041EA0221426B928941EA0241426B128A65
:104E800041EA0251426B127D41EA0261426B926932
:104E900011430268521C9200A2F1C0421160C16A23
:104EA000B1F5804F1BD1816B0968826B526841EA72
:104EB0000211826B926841EA0221826B128A41EAF6
:104EC0000251826B127D41EA0261826B9269114349
:104ED00002689200A2F1C042C2F8041107E06FF02C
:104EE000704201688900A1F1C041C1F804217047F6
:104EF000002101600221416000218160C1600161E7
:104F000041618161C16101624FF480514162490098
:104F100081620021C1620163F84941638163704786
:104F200051B18200A2F1C042126842F00103820036
:104F3000A2F1C042136009E08200A2F1C0421268EF
:104F4000EF4B1A408300A3F1C0431A60704710284A
:104F50000AD118214FF020421166402151664FF0CE
:104F6000FC319166D16610E01821E64A11604021BB
:104F70004FF02042C2F884104FF0FC31E14A083271
:104F800011604FF02042C2F88C10704730B50021FC
:104F900000220023446844F0080485682C43C56857
:104FA0002C4305692C43456944EA4524856944EA54
:104FB0004531C4692468C5696D6844EA0524C5693A
:104FC0002D8944EA0544C5692D7B44EA0562046ADB
:104FD0002468056A6D6844EA0524056A2D8944EA57
:104FE0000544056A2D7B44EA05630468102C05D14D
:104FF0004FF020442166A266E36608E0C14C2160C0
:105000004FF02044C4F88820BE4C0C34236030BDDF
:1050100010210160002141608160C1600161416136
:105020008161FC21C2691160C2695160C2699160ED
:10503000C269D160026A1160026A5160026A9160BD
:10504000026AD160704799B1102808D14FF0204210
:10505000126E42F004024FF020431A661DE0A94A86
:10506000126842F004024FF02043C3F8802014E09D
:10507000102809D14FF02042126EA14BDB1E1A40BE
:105080004FF020431A6608E09E4A12689C4BDB1ED4
:105090001A404FF02043C3F88020704799B1102880
:1050A00008D14FF02042126E42F040024FF02043F0
:1050B0001A661DE0934A126842F040024FF0204306
:1050C000C3F8802014E0102809D14FF02042126E5E
:1050D0008B4B3F3B1A404FF020431A6608E0894A49
:1050E0001268874B3F3B1A404FF02043C3F88020A3
:1050F000704701460020102903D14FF02042506F25
:1051000002E0804A14321068704718207D4920312F
:10511000086000200906C1F8A4004FF0FC3079496E
:1051200028310860091D0860091D08607047016882
:1051300041F01001426841EA4221826841EA42316D
:10514000704A20321160C1680968C268526841EA39
:105150000221C268128941EA0241C268127B41EA17
:105160000261684A2832116001690968026952685F
:1051700041EA02210269128941EA02410269127B75
:1051800041EA02615F4A2C32116041690968426953
:10519000526841EA02214269128941EA02414269A8
:1051A000127B41EA02614FF02042C2F8B010704712
:1051B0000021016041608160FC21C2681160C26809
:1051C0005160C2689160C268D16002691160026971
:1051D0005160026991600269D1604269116042695F
:1051E0005160426991604269D160704748B1454958
:1051F0002031096841F004014FF02042C2F8A010AC
:1052000009E04049203109683D4AD21E11404FF063
:105210002042C2F8A010704710B5F2B1102807D193
:105220004FF020435B6E0B434FF02044636632E047
:10523000B0F5807F08D1334B1B1D1B680B434FF02B
:105240002044C4F8843026E02E4B24331B680B43E3
:105250004FF02044C4F8A4301DE0102807D14FF0CF
:1052600020435B6E8B434FF02044636613E0B0F540
:10527000807F08D1234B1B1D1B688B434FF02044BC
:10528000C4F8843007E01F4B24331B688B434FF076
:105290002044C4F8A43010BD10B5024600200023FD
:1052A000102A03D14FF02044636E09E0B2F5807FED
:1052B00003D1144C241D236802E0124C24342368CB
:1052C00003EA01040CB1012000E0002010BD102809
:1052D00007D14FF02042526E8A434FF020435A6666
:1052E00019E0B0F5807F0FD1064A121D12688A437B
:1052F0004FF02043C3F884200DE00000207D00081B
:10530000FEFF0F00800000A0234A12688A434FF07E
:105310002043C3F8A420704770B502460020002344
:1053200000240025102A03D14FF02046736E08E0B8
:10533000B2F5807F03D1184E203E336801E0164E4F
:10534000336803EA010403EAD10514B10DB1012069
:1053500000E0002070BD102808D14FF02042526EAE
:1053600022EAD1024FF020435A6614E0B0F5807F64
:1053700009D1094A203A126822EAD1024FF02043AB
:10538000C3F8842007E0044A126822EAD1024FF0F1
:105390002043C3F8A4207047A40000A0F948006887
:1053A00040F00100F74908600020F6490831086024
:1053B000F4480068F4490840F2490860F348091DC0
:1053C0000860F348EF4984310860F0481038091D3F
:1053D0000860EC48006820F48020EA49086000205A
:1053E000E8490C310860E7498C31086070470021BA
:1053F000E44A921C117011460870704710B50146BE
:105400000022002300204A11012A02D1DD4C23682A
:1054100008E0022A03D1DB4C7034236802E0D94C47
:105420007434236801F01F02012494401C400CB125
:10543000012000E0002010BD38B5002000900024BD
:10544000002500BF3120FFF7D9FF05460098401C1A
:1054500000900098B0F5A04F01D0002DF2D031207F
:10546000FFF7CCFF08B1012400E00024204638BD3E
:1054700001460020C34A106820F0F80040EAC1004D
:1054800010607047C349086070470021BD4A703200
:1054900011701170012802D004280AD104E0012102
:1054A000B84A7032117005E00521B64A70321170A9
:1054B00000E000BF00BF7047B7490860704770B593
:1054C000049C41EA82150126C6EB530645EA0645CF
:1054D000054345EA0465AB4E361D356070BDAD49E8
:1054E00008667047820142EA0172A64B84331A6053
:1054F0007047A8498866704710B5830143EA016385
:1055000043EA02739F4C8834236010BDA1490867A9
:105510007047A049C864704702460020994B083381
:10552000186820F0EC6042EA01031843954B0833F9
:105530001860704702460020924B0833186820F02C
:10554000784042EA010318438E4B083318607047D5
:10555000014600208B4A0832106820F003000843FF
:105560001060704787480830006800F00C007047F2
:1055700001460020834A0832106820F0F0000843FA
:1055800010607047014600207E4A0832106820F4FF
:10559000E05008431060704701460020794A083205
:1055A000106820F4604040EAC10010607047F0B518
:1055B000002100220024022500260223714F083713
:1055C0003F6807F00C0121B1042905D0082937D123
:1055D00005E0724F076036E0714F076033E0694FB6
:1055E0003F1D3F68C7F38056664F3F1D3F6807F079
:1055F0003F036EB16A4FB7FBF3F7DFF888C10CF1D8
:10560000040CDCF800C0CCF3881C07FB0CF40CE0A5
:10561000624FB7FBF3F7DFF86CC10CF1040CDCF858
:1056200000C0CCF3881C07FB0CF4564F3F1D3F68AD
:10563000C7F301477F1C7D00B4FBF5F7076002E06C
:10564000564F076000BF00BF4E4F08373F6807F056
:10565000F0010909534F7A5C0768D7404760494F0A
:1056600008373F6807F4E051890A4E4F7A5C476873
:10567000D7408760434F08373F6807F46041490BC4
:10568000484F7A5C4768D740C760F0BD002100F4FE
:105690004072B2F5407F0AD13A4A0832116821F4CB
:1056A000F811414A02401143364A08321160354A26
:1056B00070321268C0F30B031A43324B70331A6016
:1056C00070473549443908607047334940390860AC
:1056D000704736490860704701460020294A8C32DD
:1056E000106820F01F004A1E1043264A8C321060BA
:1056F000704701460020234A8C32106820F4F8508D
:105700004A1E40EA02201F4A8C3210607047014650
:1057100000201C4A8C32106820F4401008431060AE
:10572000704701460020174A8C32106820F4400070
:1057300008431060704701460020124A8C321068FE
:1057400020F44030084310607047194908607047E2
:1057500039B10C4A3032126802430A4B30331A60B6
:1057600006E0084A303212688243064B30331A6032
:105770007047F9B1034A343212680243014B3433A3
:105780001A601CE000380240FFFFF6EA10300024E7
:105790000030002000004742800E47420024F40001
:1057A00000127A0026000020FFFCFF0F5C01474238
:1057B000E01147428F4A126882438E4B1A6070474D
:1057C00039B18C4A121D126802438A4B1B1D1A60A4
:1057D00006E0884A121D12688243864B1B1D1A6020
:1057E000704739B1834A0C3212680243814B0C3343
:1057F0001A6006E07F4A0C32126882437D4B0C33FC
:105800001A60704739B17B4A103212680243794BF3
:1058100010331A6006E0774A103212688243754BE3
:1058200010331A60704739B1724A243A1268024341
:10583000704B243B1A6006E06E4A243A1268824399
:105840006C4B243B1A60704739B16A4A203A12689F
:105850000243684B203B1A6006E0664A203A126811
:105860008243644B203B1A60704739B1614A1C3A4D
:10587000126802435F4B1C3B1A6006E05D4A1C3A0B
:10588000126882435B4B1C3B1A60704739B1594A1E
:10589000143A12680243574B143B1A6006E0554A0B
:1058A000143A12688243534B143B1A60704739B163
:1058B000504A103A126802434E4B103B1A6006E001
:1058C0004C4A103A126882434A4B103B1A607047A8
:1058D00039B1484A1C3212680243464B1C331A60E5
:1058E00006E0444A1C3212688243424B1C331A6061
:1058F000704739B13F4A2032126802433D4B203392
:105900001A6006E03B4A203212688243394B20334A
:105910001A60704739B1374A243212680243354B56
:1059200024331A6006E0334A243212688243314B32
:1059300024331A60704739B12E4A2C321268024360
:105940002C4B2C331A6006E02A4A2C321268824310
:10595000284B2C331A60704739B1264A303212680E
:105960000243244B30331A6006E0224A3032126878
:105970008243204B30331A607047012808D11D49FB
:105980003C31096841F008011A4A3C32116007E0D5
:1059900018493C31096821F00801164A3C3211606F
:1059A000704739B1134A273A12780243114B273B0B
:1059B0001A7006E00F4A273A127882430D4B273BB4
:1059C0001A7070470B484030006840F080700949F9
:1059D00040310860704701460020064A283A1268A4
:1059E0000A400AB1012000E0002070470149263931
:1059F000087070473438024010B50446FA488442B3
:105A000008D101211020FFF752FF00211020FFF7DD
:105A10004EFF57E0F548844209D101214804FFF7C1
:105A200035FF00214FF40030FFF730FF4AE0F04827
:105A3000844209D101218804FFF728FF00214FF497
:105A40008020FFF723FF3DE0EA48844209D101218D
:105A5000C804FFF71BFF00214FF40020FFF716FFDB
:105A600030E0E548844209D101210805FFF70EFF27
:105A700000214FF48010FFF709FF23E0DF48844244
:105A800008D101212020FFF712FF00212020FFF77D
:105A90000EFF17E0DA48844209D101218807FFF799
:105AA000F5FE00214FF08040FFF7F0FE0AE0D548F8
:105AB000844207D101214005FFF7E8FE002160057F
:105AC000FFF7E4FE10BD2DE9FF4705460E46002412
:105AD000A14600BFA046B08900B100BF2C8A24F4C3
