:020000040800F2
:1000000080070020AD4300083106000833060008D1
:10001000370600083B0600083F0600080000000005
:10002000000000000000000000000000430600087F
:1000300045060008000000004706000849060008C1
:10004000C7430008C7430008C7430008C743000868
:10005000C7430008C7430008C7430008C743000858
:10006000C7430008C7430008C7430008C743000848
:10007000C7430008C7430008C7430008C743000838
:10008000C7430008C7430008C7430008C743000828
:10009000C7430008C7430008C7430008C743000818
:1000A000C7430008C7430008C7430008C743000808
:1000B000C7430008C7430008C7430008C7430008F8
:1000C000C7430008C7430008C7430008C7430008E8
:1000D000C743000823430008C7430008C74300087C
:1000E000C7430008C7430008C7430008C7430008C8
:1000F000C7430008C7430008C7430008C7430008B8
:10010000C7430008C7430008C7430008C7430008A7
:10011000C7430008C7430008C7430008C743000897
:10012000C7430008C7430008C7430008C743000887
:10013000C7430008C7430008C7430008C743000877
:10014000C7430008C7430008C7430008C743000867
:10015000C7430008C7430008C7430008C743000857
:10016000C7430008C7430008C7430008C743000847
:10017000C7430008C7430008C7430008C743000837
:10018000C7430008C743000800F002F800F047F832
:100190000AA090E8000C82448344AAF10107DA45E2
:1001A00001D100F03CF8AFF2090EBAE80F0013F0ED
:1001B000010F18BFFB1A43F0010318474C7B0000E6
:1001C0006C7B0000103A24BF78C878C1FAD8520777
:1001D00024BF30C830C144BF04680C6070470000C1
:1001E0000023002400250026103A28BF78C1FBD840
:1001F000520728BF30C148BF0B607047642905F023
:10020000A186782905F0DA86732905F0D2870020C7
:1002100070471FB506F070F91FBD10B510BD05F091
:10022000FBFF1146FFF7F5FF00F05DF806F019F847
:1002300003B4FFF7F2FF03BC04F014F89D48006814
:100240009D4908609B48001F00684860994808382D
:1002500000688860704770B505460C460CB92846A2
:1002600070BD95FBF4F004FB105631462046FFF7B5
:10027000F2FFF5E770B504460D4629462046FFF724
:10028000EAFF0646012E05D08CA005F0F1FD4FF0E7
:10029000FF3070BD002C05DA94FBF5F005FB104033
:1002A0002844F6E72046F4E730B50346012017E07E
:1002B0000C4601EBD4756D10A1EB4505012D05D160
:1002C00000FB03F494FBF2F502FB154003FB03F47F
:1002D00094FBF2F502FB15430C4601EBD475691053
:1002E0000029E5DC30BD0EB5002700BF00BF4FF48C
:1002F000A06004F07BF8A82003F032FF4FF4E13057
:1003000003F0BDFF00F0AAFA00F039FF03F0F8FD9A
:100310004FF478406C490880FFF790FF6BA01021E4
:100320000B46C822CDE9001032211E2003F0A9FDA2
:100330006BA010210B46C822CDE9001046211E20DB
:1003400003F09FFD6BA010210B46C822CDE90010E1
:100350005A211E2003F095FD6AA010210B46C822E9
:10036000CDE900106E211E2003F08BFD68A0102146
:100370000B46C822CDE9001082211E2003F081FD2A
:100380004FF4FA6003F04EFF67A005F071FD8FE0B7
:100390007548008800F400400028F8D072480678BC
:1003A000002404E07148005D2855601CC4B2B442CA
:1003B000F8DB00206C49088037B1012F30D0022FC4
:1003C00070D0032F73D171E069A1284605F042FE79
:1003D00098B9012738488368426801686BA005F026
:1003E00047FD72A005F044FD002403E000202855DD
:1003F000601CC4B2B442F9DB11E029466FA005F0DD
:1004000037FD6FA005F034FD47A005F031FD002455
:1004100003E000202855601CC4B2B442F9DB46E07A
:10042000284605F0F7FD804641466AA005F020FD0C
:10043000082202A9684803F06BFE02A95FA005F03C
:1004400017FD08222946644803F019FE082202A974
:10045000614803F05DFE02A958A005F009FD5FA107
:10046000284605F0F7FD60B9022763A005F000FDFE
:10047000002403E000202855601CC4B2B442F9DB1C
:100480000EE029464DA005F0F3FC61A005F0F0FC5C
:10049000002403E000202855601CC4B2B442F9DBFC
:1004A00005E0FFE760A005F0E3FC00E000BF00BF4F
:1004B0006EE70000187AFF1F38000020C3BBD3D0BE
:1004C000C4A3C4E60A000000140000204578706C44
:1004D0006F7265722053544D333246340000000071
:1004E000464C41534820454550524F4D20544553AA
:1004F0005400000041544F4D40414C49454E544535
:100500004B000000323031342F352F39000000000D
:100510004B4559313A577269746520204B45593023
:100520003A52656164000000C7EBCAE4C8EBA1AEB3
:10053000BBF1C8A153544D333246343037D0BEC618
:10054000ACD3B2BCFED0F2C1D0BAC5A1AFC0B4BD6D
:10055000F8D0D0D0BEC6ACD0F2C1D0BAC5B5C4BBFD
:10056000F1C8A1A1A30A000024000020520000202D
:10057000BBF1C8A153544D333246343037D0BEC6D8
:10058000ACD3B2BCFED0F2C1D0BAC500726E232388
:100590002323232323232323234350552049443A51
:1005A00025582D25582D25580D0A00000ACAE4C8E3
:1005B000EBCADAC8A8C2EB0A0000000025730A00E3
:1005C000CAE4C8EBD3D0CEF3C7EBD6D8D0C2CAE4C6
:1005D000C8EB0A0025640A0004C000083337333032
:1005E000333833322D33313331353130362D3434E5
:1005F0003030343200000000D1E9D6A4B3C9B9A626
:10060000C7EBCAE4C8EBD1A7BAC5A3BA0A00000079
:10061000D1E9D6A4CAA7B0DCA3ACC7EBD6D8D0C268
:10062000CAE4C8EBA3BA0A00636F64650A0000005D
:10063000704700BFFEE700BFFEE700BFFEE700BF58
:10064000FEE7704770477047704700000CB5002008
:10065000019000907648006840F48030744908604A
:1006600000BF7348006800F4003000900198401CFF
:100670000190009818B90198B0F5A04FF1D16C48DD
:10068000006800F4003010B10120009001E000206B
:1006900000900098012846D165484030006840F03D
:1006A00080506349403108606248006840F440402F
:1006B000604908605E48083000685D49083108609C
:1006C0000846006840F4004008600846006840F4AE
:1006D000A05008605848091F0860081F006840F0D3
:1006E0008070091F086000BF5148006800F000706A
:1006F0000028F9D040F20570504908604C48083095
:10070000006820F003004A49083108600846006884
:1007100040F00200086000BF45480830006800F063
:100720000C000828F8D10CBD10B54548006840F40D
:100730007000434908603E48006840F001003C49B1
:10074000086000203A4908310860394800683D498E
:100750000840374908603C48091D0860081F0068C8
:1007600020F48020091F0860002031490C31086006
:10077000FFF76CFF4FF0006031498039086010BD11
:1007800070B500200022022300240221284D0835E4
:100790002D6805F00C0020B1042806D0082834D1BB
:1007A00007E02A4D2A4E356033E02A4D284E356049
:1007B0002FE01F4D2D1D2D68C5F380541C4D2D1DA0
:1007C0002D6805F03F0154B1224DB5FBF1F5184EEF
:1007D000361D3668C6F3881605FB06F209E01B4D88
:1007E000B5FBF1F5124E361D3668C6F3881605FBCB
:1007F00006F20F4D2D1D2D68C5F301456D1C6B00D4
:10080000B2FBF3F5124E356003E0104D104E35602B
:1008100000BF00BF064D08352D68C5F303150E4E09
:10082000705D0B4D2D68C540094E356070BD0000F0
:10083000003802400070004008544007003C02406D
:1008400088ED00E0FFFFF6FE103000240024F400E5
:100850000000002000127A00040000201CB50121D5
:10086000202004F085FF4FF4C060009001208DF837
:10087000040000208DF8060003208DF805000120FB
:100880008DF807006946044803F0A6FE4FF4C061E6
:10089000014803F01DFF1CBD0014024001B5BDF866
:1008A00000000090BDF80000FE49088008BD01B5B9
:1008B000BDF800000090BDF80000FA49891C0880CE
:1008C00008BD08B5F748801C00880090BDF80000FE
:1008D00008BDF44A10804FF0D842A2F8801070474B
:1008E00010B504462046FFF7D9FF052003F052FC5F
:1008F000FFF7E7FF10BDEC480089EA490880704720
:10090000E849891C0880704730B5014601F01F0492
:10091000C1F34513CA0AE50205EB43151544A8B215
:1009200030BD00BF011EA0F10102D0B2FAD1704764
:1009300010B502460C46DC48808841F663118842B7
:1009400047D1D9488079A8B9D7480088401E801A75
:1009500082B2D5494889FFF7A1FF0020FFF7A7FF22
:100960000020FFF7A4FF1012FFF7A1FFD0B2FFF79E
:100970009EFF16E0CC494889FFF790FF1012FFF761
:1009800096FFD0B2FFF793FFC7490988491EC1F30C
:100990000F20FFF78CFFC4490978491EC8B2FFF742
:1009A00086FFC1498889FFF779FF2012FFF77FFF93
:1009B000E0B2FFF77CFFBC494988491EC1F30F2014
:1009C000FFF775FFB8498978491EC8B2FFF76FFF76
:1009D0003AE0B548808845F21051884220D1B249AA
:1009E0004889FFF75BFF1012FFF761FFAE494989A5
:1009F000491C88B2FFF752FFD0B2FFF758FFAA494F
:100A00008889FFF74BFF2012FFF751FFA64989891C
:100A1000491C88B2FFF742FFE0B2FFF748FF13E03E
:100A2000A1494889FFF73AFF1012FFF740FFD0B203
:100A3000FFF73DFF9C498889FFF730FF2012FFF741
:100A400036FFE0B2FFF733FF10BD2DE9F041054658
:100A50000E4600240027A04693480088A84203DDE4
:100A600091484088B04202DC0020BDE8F081314668
:100A70002846FFF75DFF8C48808845F21051884278
:100A800004D14FF43850FFF709FF02E02E20FFF7A2
:100A900005FFFFF716FF04468348808841F663117F
:100AA000884201D12046E0E7FFF70BFF0446FFF73D
:100AB00008FF8046E7B24FF6FF7000EA0727E01212
:100AC000C002B91240EA411040EAE820CDE700B583
:100AD0007548808845F21051884204D14FF4245063
:100AE000FFF7DCFE02E02920FFF7D8FE00BD00B5CD
:100AF0006D48808845F21051884204D14FF420504F
:100B0000FFF7CCFE02E02820FFF7C8FE00BDF0B5DD
:100B100005460024002764488079012805D16248F1
:100B2000808841F66311884208D15F488079F0B926
:100B30005D48808841F66311884218D1082D15D28E
:100B4000DFE805F00406080A0C0E101206250DE079
:100B500007250BE0042509E0052507E0012505E050
:100B6000002503E0032501E0022500BF00BF082D9A
:100B70001CD2DFE805F00406090C0F12151800BF9F
:100B800014E044F0800411E044F040040EE044F02E
:100B9000C0040BE044F0200408E044F0600405E0E9
:100BA00044F0A00402E044F0E00400BF00BF3E486F
:100BB000808845F21051884202D14FF4585700E026
:100BC00036273948808849F24131884205D0364875
:100BD000808847F28971884201D144F00804214697
:100BE0003846FFF776FE3048808841F66311884228
:100BF0001DD004F0200068B12B4800882A4949889C
:100C0000884214DA28480688408827490880084620
:100C100046800CE02448008823494988884206DD44
:100C200021480688408820490880084646801E489A
:100C3000808845F21051884257D11B494889FFF7F7
:100C40002DFE0020FFF733FE17494989491C88B261
:100C5000FFF724FE0020FFF72AFE13494989891C6B
:100C600088B2FFF71BFE10490988491EC1F30F2007
:100C7000FFF71DFE0C494989C91C88B2FFF70EFE1B
:100C800009490978491EC8B2FFF711FE064988894B
:100C9000FFF704FE0020FFF70AFE03498989491C7B
:100CA00088B203E07E00006C44000020FFF7F6FDF0
:100CB0000020FFF7FCFDFE498989891C88B2FFF7F7
:100CC000EDFDFB494988491EC1F30F20FFF7EFFDF9
:100CD000F7498989C91C88B2FFF7E0FDF449897892
:100CE000491EC8B2FFF7E3FD2DE0F1494889FFF73F
:100CF000D5FD0020FFF7DBFD0020FFF7D8FDEC4914
:100D00000988491EC1F30F20FFF7D1FDE849097892
:100D1000491EC8B2FFF7CBFDE5498889FFF7BEFD44
:100D20000020FFF7C4FD0020FFF7C1FDE04949881E
:100D3000491EC1F30F20FFF7BAFDDD498978491E2E
:100D4000C8B2FFF7B4FDF0BD30B504460D462946E4
:100D50002046FFF7EDFDFFF7CEFDD6480088D649C7
:100D6000088030BD30B504460D46D148808845F234
:100D70001051884220D1CE494889FFF78FFD2012BB
:100D8000FFF795FDCA494989491C88B2FFF786FDDE
:100D9000E0B2FFF78CFDC6498889FFF77FFD281276
:100DA000FFF785FDC2498989491C88B2FFF776FDA6
:100DB000E8B2FFF77CFD42E0BD48808841F6631150
:100DC000884228D1BA48807920B9B9480088401EA5
:100DD000001B84B2B6494889FFF760FD2012FFF777
:100DE00066FDE0B2FFF763FD2012FFF760FDE0B2A1
:100DF000FFF75DFDAE498889FFF750FD2812FFF728
:100E000056FDE8B2FFF753FD2812FFF750FDE8B298
:100E1000FFF74DFD13E0A6494889FFF73FFD20127B
:100E2000FFF745FDE0B2FFF742FDA1498889FFF7D2
:100E300035FD2812FFF73BFDE8B2FFF738FD9C486F
:100E400000899D49891E08804FF0D840A0F8802075
:100E500030BD70B52DED048B0446BE20FFF71EFD9E
:100E60000520FFF724FD204605F035FA41EC190B6B
:100E70009FED920B53EC102B05F040FA41EC180B50
:100E800005F0FCF985B22846FFF711FD0120FFF7B8
:100E90000EFDFF20FFF70BFD0020FFF708FD0020EF
:100EA000FFF705FDBDEC048B70BD10B5044680480E
:100EB0008471002C45D1F0207D4908804FF4A0704A
:100EC00048800846808845F21051884210D14FF47E
:100ED0003050774908814FF4285048814FF42C5006
:100EE00088814FF4F07008804FF4487048801AE011
:100EF0006F48808841F6631188420DD12C206C49DF
:100F000008812B2048812A2088814FF4F0700880C6
:100F10004FF44870488006E02C20654908812A205B
:100F200048812B2088816248808845F210318842B0
:100F30004CD14FF4A0705E4908804FF4F0704880A7
:100F400044E04FF4A0705A490880F02048800846D9
:100F5000808845F21051884210D14FF430505449E6
:100F600008814FF4285048814FF42C5088814FF469
:100F7000487008804FF4F07048801AE04C48808830
:100F800041F6631188420DD12C20494908812A205D
:100F900048812B2088814FF4487008804FF4F0700E
:100FA000488006E02C20424908812A2048812B20D5
:100FB00088813F48808845F21031884206D14FF43D
:100FC000F0703B4908804FF4A07048800020FFF784
:100FD0009EFD10BD2DE9F04104460D461E46A018A9
:100FE000401E87B2A819401E1FFA80F8304880883A
:100FF00041F66311884231D12D48807901282DD0E6
:101000002B480088801A001B84B2A819401E86B2A3
:1010100027494889FFF742FC2012FFF748FCE0B25D
:10102000FFF745FCA118491EC1F30F20FFF73FFC55
:10103000A118491EC8B2FFF73AFC1D498889FFF77D
:101040002DFC2812FFF733FCE8B2FFF730FC30121A
:10105000FFF72DFCF0B2FFF72AFC79E014488088F6
:1010600045F21051884251D111494889FFF716FCC9
:101070002012FFF71CFC0E494989491C88B2FFF772
:101080000DFCE0B2FFF713FC09494989891C88B2BD
:10109000FFF704FC3812FFF70AFC05494989C91C0F
:1010A00088B2FFF7FBFBF8B2FFF701FC004909E04B
:1010B00044000020140000208000006C6666666614
:1010C000666604408889FFF7E9FB2812FFF7EFFB0B
:1010D000FD498989491C88B2FFF7E0FBE8B2FFF7B8
:1010E000E6FBF9498989891C88B2FFF7D7FB4FEAEB
:1010F0002820FFF7DCFBF4498989C91C88B2FFF777
:10110000CDFB08F0FF00FFF7D2FB21E0EE49488954
:10111000FFF7C4FB2012FFF7CAFBE0B2FFF7C7FBE3
:101120003812FFF7C4FBF8B2FFF7C1FBE649888924
:10113000FFF7B4FB2812FFF7BAFBE8B2FFF7B7FBE3
:101140004FEA2820FFF7B3FB08F0FF00FFF7AFFBE3
:10115000BDE8F08170B504460026DB48058840886C
:10116000454300210846FFF7E3FBFFF7C4FB00BF40
:1011700002E0D6480480761CAE42FAD370BD00B5BA
:10118000A1B00020209001217A2004F0F1FA012181
:10119000084604F025FB4FF400401E9001208DF816
:1011A0007C0000208DF87E0002208DF87D0001205B
:1011B0008DF87F001EA9C64803F00EFA4CF233707A
:1011C0001E9002208DF87C0000208DF87E00032008
:1011D0008DF87D0001208DF87F001EA9BD4803F029
:1011E000FBF94FF680701E9002208DF87C000020E5
:1011F0008DF87E0003208DF87D0001208DF87F00A2
:101200001EA9B54803F0E8F94FF480501E90022063
:101210008DF87C0000208DF87E0003208DF87D0085
:1012200001208DF87F001EA9AC4803F0D5F94FF4DA
:1012300080501E9002208DF87C0000208DF87E00EA
:1012400003208DF87D0001208DF87F001EA9A448A1
:1012500003F0C2F90C2200219E4803F048FA0C2248
:1012600001219C4803F043FA0C220421994803F021
:101270003EFA0C220521974803F039FA0C22082186
:10128000944803F034FA0C220921924803F02FFA13
:101290000C220A218F4803F02AFA0C220E218D48D5
:1012A00003F025FA0C220F218A4803F020FA0C22C1
:1012B0000721894803F01BFA0C220821864803F015
:1012C00016FA0C220921844803F011FA0C220A2193
:1012D000814803F00CFA0C220B217F4803F007FA37
:1012E0000C2211467C4803F002FA0C220D217A48A8
:1012F00003F0FDF90C220E21774803F0F8F90C22D7
:101300000F21754803F0F3F90C221146734803F0DE
:10131000EEF90C221146724803F0E9F90F2008900B
:10132000002009903C200A9000200B900C900D901A
:101330000E900920019000200290082003900020C8
:10134000049005900690079006200F9000201090C2
:101350001190102012900020139015901490169068
:1013600017904FF480501890002019904FF480404F
:101370001A9000201B9008A81C9001A81D900FA88F
:1013800003F009FA0121062003F090FA322002F05E
:1013900049FFD320FFF782FAFFF793FA4A49888082
:1013A000FFF78FFA48498880FFF78BFA4649888013
:1013B000084680884FF6FF7101EA00204249888084
:1013C000FFF77FFA4049898808433F4988800846EB
:1013D000808849F24131884275D00420FFF75EFAD7
:1013E000FFF76FFA38498880FFF76BFA3649888033
:1013F000FFF767FA34498880084680884FF6FF7106
:1014000001EA002030498880FFF75BFA2E4989887D
:1014100008432D4988800846808848F25251884206
:1014200003D147F28970284988802748808847F28D
:1014300089718842D0D0D420FFF730FAFFF741FA03
:1014400021498880FFF73DFA1F498880FFF739FA64
:101450001D498880084680884FF6FF7101EA002008
:1014600019498880FFF72DFA1749898808431649DA
:1014700088800846808845F21031884279D055210D
:101480004FF47040FFF725FAAA214FF20100FFF751
:1014900020FA52214FF20200FFF71BFA08214FF207
:1014A0000300FFF716FA01214FF20400FFF711FACB
:1014B0004FF44540FFF7F2F9FFF703FA024988803D
:1014C000084680880EE054E0440000208000006C54
:1014D00000040240000C02400010024000140240D0
:1014E000001802404FF6FF7101EA0020FE49888093
:1014F0004CF20150FFF7D2F9FFF7E3F9FA49898876
:101500000843F9498880052002F08CFEF64880885F
:10151000B0F5004F03D145F21050F3498880F248EE
:10152000808845F21051884223D0A120FFF7B6F9F8
:10153000FFF7C7F9EC498880FFF7C3F9EA498880CB
:10154000084680884FF6FF7101EA0020E64988804E
:10155000FFF7B7F9E44989880843E34988800846DA
:10156000808845F26171884203D141F66310DE49FB
:101570008880DD48808849F24131884217D0DA48B6
:10158000808847F28971884211D0D748808845F217
:10159000103188420BD0D448808845F210518842DF
:1015A00005D0D148808841F6631188422CD1CF48BC
:1015B000006820F00F004FF02041C1F81C010846E0
:1015C000D0F81C0120F47060C1F81C010846D0F866
:1015D0001C0140F00300C1F81C01C348808847F299
:1015E0008971884208D1C148006840F440704FF0CA
:1015F0002041C1F81C0107E0BC48006840F40070BD
:101600004FF02041C1F81C01B7488188B8A004F010
:101610002FFCB548808849F2413188427ED1CF20E5
:10162000FFF73CF90020FFF742F9C120FFF73FF92F
:101630003020FFF73CF9ED20FFF730F96420FFF789
:1016400036F90320FFF733F91220FFF730F9812034
:10165000FFF72DF9E820FFF721F98520FFF727F99B
:101660001020FFF724F97A20FFF721F9CB20FFF7AC
:1016700015F93920FFF71BF92C20FFF718F9002086
:10168000FFF715F93420FFF712F90220FFF70FF9E1
:10169000F720FFF703F92020FFF709F9EA20FFF709
:1016A000FDF80020FFF703F90020FFF700F9C02044
:1016B000FFF7F4F81B20FFF7FAF8C120FFF7EEF868
:1016C0000120FFF7F4F8C520FFF7E8F83020FFF716
:1016D000EEF83020FFF7EBF8C720FFF7DFF8B72070
:1016E000FFF7E5F83620FFF7D9F84820FFF7DFF8D5
:1016F0003A20FFF7D3F85520FFF7D9F8B120FFF7CC
:10170000CDF80020FFF7D3F81A20FFF7D0F8B62065
:10171000FFF7C4F80A20FFF7CAF800E097E0A2201C
:10172000FFF7C5F8F220FFF7B9F80020FFF7BFF880
:101730002620FFF7B3F80120FFF7B9F8E020FFF704
:10174000ADF80F20FFF7B3F82A20FFF7B0F82820F4
:10175000FFF7ADF80820FFF7AAF80E20FFF7A7F86B
:101760000820FFF7A4F85420FFF7A1F8A920FFF7FD
:101770009EF84320FFF79BF80A20FFF798F80F2008
:10178000FFF795F80020FFF792F80020FFF78FF899
:101790000020FFF78CF80020FFF789F8E120FFF721
:1017A0007DF80020FFF783F81520FFF780F8172059
:1017B000FFF77DF80720FFF77AF81120FFF777F899
:1017C0000620FFF774F82B20FFF771F85620FFF77B
:1017D0006EF83C20FFF76BF80520FFF768F8102043
:1017E000FFF765F80F20FFF762F83F20FFF75FF87B
:1017F0003F20FFF75CF80F20FFF759F82B20FFF789
:101800004DF80020FFF753F80020FFF750F80120B3
:10181000FFF74DF83F20FFF74AF82A20FFF73EF880
:101820000020FFF744F80020FFF741F80020FFF701
:101830003EF8EF20FFF73BF81120FFF72FF8782054
:1018400002F0F0FC2920FFF729F802F0B3B826488F
:10185000808847F2897188427DD11120FFF71EF8F8
:10186000782002F0DFFC3620FFF718F80020FFF7A1
:101870001EF83A20FFF712F80520FFF718F8B220FB
:10188000FFF70CF80C20FFF712F80C20FFF70FF809
:101890000020FFF70CF83320FFF709F83320FFF79B
:1018A00006F8B720FEF7FAFF3520FFF700F8BB2057
:1018B000FEF7F4FF3220FEF7FAFFC020FEF7EEFF3E
:1018C0000C20FEF7F4FFC220FEF7E8FF0120FEF730
:1018D000EEFFC320FEF7E2FF1020FEF7E8FFC42072
:1018E000FEF7DCFF20200BE0440000201C0100A0DC
:1018F000204C43442049443A25780D0A000000005A
:10190000FEF7D5FFC620FEF7C9FF0F20FEF7CFFF79
:10191000D020FEF7C3FFA420FEF7C9FFA120FEF7E9
:10192000C6FFE020FEF7BAFFD020FEF7C0FF002080
:10193000FEF7BDFF0220FEF7BAFF0720FEF7B7FF54
:101940000A20FEF7B4FF2820FEF7B1FF3220FEF791
:10195000AEFF442000E062E0FEF7A9FF4220FEF760
:10196000A6FF0620FEF7A3FF0E20FEF7A0FF122021
:10197000FEF79DFF1420FEF79AFF1720FEF797FF52
:10198000E120FEF78BFFD020FEF791FF0020FEF74D
:101990008EFF0220FEF78BFF0720FEF788FF0A204C
:1019A000FEF785FF2820FEF782FF3120FEF77FFF3C
:1019B0005420FEF77CFF4720FEF779FF0E20FEF74C
:1019C00076FF1C20FEF773FF1720FEF770FF1B2029
:1019D000FEF76DFF1E20FEF76AFF2A20FEF75EFF6E
:1019E0000020FEF764FF0020FEF761FF0020FEF7F5
:1019F0005EFFEF20FEF75BFF2B20FEF74FFF00207E
:101A0000FEF755FF0020FEF752FF0120FEF74FFFC3
:101A10003F20FEF74CFF2920FEF740FF15E7FE4868
:101A2000808845F21031884240F07C87ED20FEF737
:101A300035FF0120FEF73BFFFE20FEF738FFEE20CA
:101A4000FEF72CFFDE20FEF732FF2120FEF72FFFEE
:101A5000F120FEF723FF0120FEF729FFDF20FEF72C
:101A60001DFF1020FEF723FFC420FEF717FF8F2075
:101A7000FEF71DFFC620FEF711FF0020FEF717FF3F
:101A8000E220FEF714FFE220FEF711FFE220FEF74E
:101A90000EFFBF20FEF702FFAA20FEF708FFB020CE
:101AA000FEF7FCFE0D20FEF702FF0020FEF7FFFE12
:101AB0000D20FEF7FCFE0020FEF7F9FE1120FEF7D8
:101AC000F6FE0020FEF7F3FE1920FEF7F0FE0020E0
:101AD000FEF7EDFE2120FEF7EAFE0020FEF7E7FE0E
:101AE0002D20FEF7E4FE0020FEF7E1FE3D20FEF78C
:101AF000DEFE0020FEF7DBFE5D20FEF7D8FE0020B4
:101B0000FEF7D5FE5D20FEF7D2FE0020FEF7CFFEE9
:101B1000B120FEF7C3FE8020FEF7C9FE0020FEF7CD
:101B2000C6FE8B20FEF7C3FE0020FEF7C0FE962007
:101B3000FEF7BDFE0020FEF7BAFEB220FEF7AEFEB5
:101B40000020FEF7B4FE0020FEF7B1FE0220FEF7F3
:101B5000AEFE0020FEF7ABFE0320FEF7A8FE00203D
:101B6000FEF7A5FEB320FEF799FE0020FEF79FFECC
:101B70000020FEF79CFE0020FEF799FE0020FEF7F5
:101B800096FE0020FEF793FE0020FEF790FE002058
:101B9000FEF78DFE0020FEF78AFE0020FEF787FE8E
:101BA0000020FEF784FE0020FEF781FE0020FEF7F5
:101BB0007EFE0020FEF77BFE0020FEF778FE002070
:101BC000FEF775FE0020FEF772FE0020FEF76FFEA6
:101BD0000020FEF76CFE0020FEF769FE0020FEF7F5
:101BE00066FE0020FEF763FE0020FEF760FE002088
:101BF000FEF75DFE0020FEF75AFEB420FEF74EFE13
:101C00008B20FEF754FE0020FEF751FE9620FEF7D3
:101C10004EFE0020FEF74BFEA120FEF748FE0020FE
:101C2000FEF745FEB520FEF739FE0220FEF73FFE27
:101C30000020FEF73CFE0320FEF739FE0020FEF7F1
:101C400036FE0420FEF733FE0020FEF730FEB620FD
:101C5000FEF724FE0020FEF72AFE0020FEF727FEF6
:101C6000B720FEF71BFE0020FEF721FE0020FEF746
:101C70001EFE3F20FEF71BFE0020FEF718FE5E2032
:101C8000FEF715FE0020FEF712FE6420FEF70FFEA1
:101C90000020FEF70CFE8C20FEF709FE0020FEF768
:101CA00006FEAC20FEF703FE0020FEF700FEDC205F
:101CB000FEF7FDFD0020FEF7FAFD7020FEF7F7FDB0
:101CC0000020FEF7F4FD9020FEF7F1FD0020FEF766
:101CD000EEFDEB20FEF7EBFD0020FEF7E8FDDC203B
:101CE000FEF7E5FD0020FEF7E2FDB820FEF7D6FD89
:101CF0000020FEF7DCFD0020FEF7D9FD0020FEF7F6
:101D0000D6FD0020FEF7D3FD0020FEF7D0FD002019
:101D1000FEF7CDFD0020FEF7CAFD0020FEF7C7FD4F
:101D2000BA20FEF7BBFD2420FEF7C1FD0020FEF720
:101D3000BEFD0020FEF7BBFD0020FEF7B8FDC12070
:101D4000FEF7ACFD2020FEF7B2FD0020FEF7AFFD50
:101D50005420FEF7ACFD0020FEF7A9FDFF20FEF7A2
:101D6000A6FD0020FEF7A3FDC220FEF797FD0A2086
:101D7000FEF79DFD0020FEF79AFD0420FEF797FD7B
:101D80000020FEF794FDC320FEF788FD3C20FEF7FF
:101D90008EFD0020FEF78BFD3A20FEF788FD002027
:101DA000FEF785FD3920FEF782FD0020FEF77FFD5E
:101DB0003720FEF77CFD0020FEF779FD3C20FEF782
:101DC00076FD0020FEF773FD3620FEF770FD002043
:101DD000FEF76DFD3220FEF76AFD0020FEF767FD7D
:101DE0002F20FEF764FD0020FEF761FD2C20FEF79A
:101DF0005EFD0020FEF75BFD2920FEF758FD002068
:101E0000FEF755FD2620FEF752FD0020FEF74FFDA0
:101E10002420FEF74CFD01E0440000200020FEF7E6
:101E200046FD2420FEF743FD0020FEF740FD232061
:101E3000FEF73DFD0020FEF73AFD3C20FEF737FDA2
:101E40000020FEF734FD3620FEF731FD0020FEF7BE
:101E50002EFD3220FEF72BFD0020FEF728FD2F205F
:101E6000FEF725FD0020FEF722FD2C20FEF71FFDCA
:101E70000020FEF71CFD2920FEF719FD0020FEF7CB
:101E800016FD2620FEF713FD0020FEF710FD24208E
:101E9000FEF70DFD0020FEF70AFD2420FEF707FDEA
:101EA0000020FEF704FD2320FEF701FD0020FEF7D1
:101EB000FEFCC420FEF7F2FC6220FEF7F8FC0020D6
:101EC000FEF7F5FC0520FEF7F2FC0020FEF7EFFC24
:101ED0008420FEF7ECFC0020FEF7E9FCF020FEF782
:101EE000E6FC0020FEF7E3FC1820FEF7E0FC0020F3
:101EF000FEF7DDFCA420FEF7DAFC0020FEF7D7FC9D
:101F00001820FEF7D4FC0020FEF7D1FC5020FEF78D
:101F1000CEFC0020FEF7CBFC0C20FEF7C8FC002016
:101F2000FEF7C5FC1720FEF7C2FC0020FEF7BFFC41
:101F30009520FEF7BCFC0020FEF7B9FCF320FEF76D
:101F4000B6FC0020FEF7B3FCE620FEF7B0FC002054
:101F5000FEF7ADFCC520FEF7A1FC3220FEF7A7FC82
:101F60000020FEF7A4FC4420FEF7A1FC0020FEF7B1
:101F70009EFC6520FEF79BFC0020FEF798FC762077
:101F8000FEF795FC0020FEF792FC8820FEF78FFC00
:101F90000020FEF78CFCC620FEF780FC2020FEF718
:101FA00086FC0020FEF783FC1720FEF780FC002053
:101FB000FEF77DFC0120FEF77AFC0020FEF777FC9F
:101FC000C720FEF76BFC0020FEF771FC0020FEF737
:101FD0006EFC0020FEF76BFC0020FEF768FCC820BA
:101FE000FEF75CFC0020FEF762FC0020FEF75FFCC1
:101FF0000020FEF75CFC0020FEF759FCC920FEF72C
:102000004DFC0020FEF753FC0020FEF750FC0020A2
:10201000FEF74DFC0020FEF74AFC0020FEF747FCCF
:102020000020FEF744FC0020FEF741FC0020FEF7F4
:102030003EFC0020FEF73BFC0020FEF738FC0020B1
:10204000FEF735FC0020FEF732FC0020FEF72FFCE7
:102050000020FEF72CFC0020FEF729FC0020FEF7F4
:1020600026FCE020FEF71AFC1620FEF720FC0020DC
:10207000FEF71DFC1C20FEF71AFC0020FEF717FCE3
:102080002120FEF714FC0020FEF711FC3620FEF79D
:102090000EFC0020FEF70BFC4620FEF708FC00209B
:1020A000FEF705FC5220FEF702FC0020FEF7FFFBC6
:1020B0006420FEF7FCFB0020FEF7F9FB7A20FEF718
:1020C000F6FB0020FEF7F3FB8B20FEF7F0FB002071
:1020D000FEF7EDFB9920FEF7EAFB0020FEF7E7FB99
:1020E000A820FEF7E4FB0020FEF7E1FBB920FEF795
:1020F000DEFB0020FEF7DBFBC420FEF7D8FB002050
:10210000FEF7D5FBCA20FEF7D2FB0020FEF7CFFB7F
:10211000D220FEF7CCFB0020FEF7C9FBD920FEF74A
:10212000C6FB0020FEF7C3FBE020FEF7C0FB00204B
:10213000FEF7BDFBF320FEF7BAFB0020FEF7B7FB6E
:10214000E120FEF7ABFB1620FEF7B1FB0020FEF707
:10215000AEFB1C20FEF7ABFB0020FEF7A8FB222005
:10216000FEF7A5FB0020FEF7A2FB3620FEF79FFB43
:102170000020FEF79CFB4520FEF799FB0020FEF7B0
:1021800096FB5220FEF793FB0020FEF790FB6420A5
:10219000FEF78DFB0020FEF78AFB7A20FEF787FB17
:1021A0000020FEF784FB8B20FEF781FB0020FEF76A
:1021B0007EFB9920FEF77BFB0020FEF778FBA82032
:1021C000FEF775FB0020FEF772FBB920FEF76FFBF0
:1021D0000020FEF76CFBC420FEF769FB0020FEF731
:1021E00066FBCA20FEF763FB0020FEF760FBD220EF
:1021F000FEF75DFB0020FEF75AFBD820FEF757FBE9
:102200000020FEF754FBE020FEF751FB0020FEF714
:102210004EFBF320FEF74BFB0020FEF748FBE220CD
:10222000FEF73CFB0520FEF742FB0020FEF73FFBDC
:102230000B20FEF73CFB0020FEF739FB1B20FEF7CE
:1022400036FB0020FEF733FB3420FEF730FB002086
:10225000FEF72DFB4420FEF72AFB0020FEF727FBAC
:102260004F20FEF724FB0020FEF721FB6120FEF744
:102270001EFB0020FEF71BFB7920FEF718FB002059
:10228000FEF715FB8820FEF712FB0020FEF70FFB80
:102290009720FEF70CFB0020FEF709FBA620FEF7B7
:1022A00006FB0020FEF703FBB720FEF700FB002033
:1022B000FEF7FDFAC220FEF7FAFA0020FEF7F7FA61
:1022C000C720FEF7F4FA0020FEF7F1FAD120FEF75E
:1022D000EEFA0020FEF7EBFAD620FEF7E8FA00202F
:1022E000FEF7E5FADD20FEF7E2FA0020FEF7DFFA5E
:1022F000F320FEF7DCFA0020FEF7D9FAE320FEF720
:10230000CDFA0520FEF7D3FA0020FEF7D0FA0A2016
:10231000FEF7CDFA0020FEF7CAFA1C20FEF7C7FA36
:102320000020FEF7C4FA3320FEF7C1FA0020FEF7C2
:10233000BEFA4420FEF7BBFA0020FEF7B8FA5020A0
:10234000FEF7B5FA0020FEF7B2FA6220FEF7AFFA08
:102350000020FEF7ACFA7820FEF7A9FA0020FEF77D
:10236000A6FA8820FEF7A3FA0020FEF7A0FA97202D
:10237000FEF79DFA0020FEF79AFAA620FEF797FADC
:102380000020FEF794FAB720FEF791FA0020FEF73E
:102390008EFAC220FEF78BFA0020FEF788FAC720DB
:1023A000FEF785FA0020FEF782FAD120FEF77FFAC9
:1023B0000020FEF77CFAD520FEF779FA0020FEF720
:1023C00076FADD20FEF773FA0020FEF770FAF320AC
:1023D000FEF76DFA0020FEF76AFAE420FEF75EFAD7
:1023E0000120FEF764FA0020FEF761FA0120FEF7F3
:1023F0005EFA0020FEF75BFA0220FEF758FA002092
:10240000FEF755FA2A20FEF752FA0020FEF74FFA9F
:102410003C20FEF74CFA0020FEF749FA4B20FEF76D
:1024200046FA0020FEF743FA5D20FEF740FA00204E
:10243000FEF73DFA7420FEF73AFA0020FEF737FA6D
:102440008420FEF734FA0020FEF731FA9320FEF7DD
:102450002EFA0020FEF72BFAA220FEF728FA002021
:10246000FEF725FAB320FEF722FA0020FEF71FFA46
:10247000BE20FEF71CFA0020FEF719FAC420FEF772
:1024800016FA0020FEF713FACD20FEF710FA00200E
:10249000FEF70DFAD320FEF70AFA0020FEF707FA3E
:1024A000DD20FEF704FA0020FEF701FAF320FEF724
:1024B000FEF90020FEF7FBF9E520FEF7EFF900201A
:1024C000FEF7F5F90020FEF7F2F90020FEF7EFF92C
:1024D0000020FEF7ECF90220FEF7E9F90020FEF7F4
:1024E000E6F92920FEF7E3F90020FEF7E0F93C20A9
:1024F000FEF7DDF90020FEF7DAF94B20FEF7D7F9F9
:102500000020FEF7D4F95D20FEF7D1F90020FEF798
:10251000CEF97420FEF7CBF90020FEF7C8F984202D
:10252000FEF7C5F90020FEF7C2F99320FEF7BFF9C8
:102530000020FEF7BCF9A220FEF7B9F90020FEF753
:10254000B6F9B320FEF7B3F90020FEF7B0F9BE20CC
:10255000FEF7ADF90020FEF7AAF9C420FEF7A7F9AF
:102560000020FEF7A4F9CD20FEF7A1F90020FEF728
:102570009EF9D320FEF79BF90020FEF798F9DC20A6
:10258000FEF795F90020FEF792F9F320FEF78FF998
:102590000020FEF78CF9E620FEF780F91120FEF707
:1025A00086F90020FEF783F93420FEF780F9002039
:1025B000FEF77DF95620FEF77AF90020FEF777F94D
:1025C0007620FEF774F90020FEF771F97720FEF708
:1025D0006EF90020FEF76BF96620FEF768F900201F
:1025E000FEF765F98820FEF762F90020FEF75FF933
:1025F0009920FEF75CF90020FEF759F9BB20FEF7A1
:1026000056F90020FEF753F99920FEF750F9002003
:10261000FEF74DF96620FEF74AF90020FEF747F96C
:102620005520FEF744F90020FEF741F95520FEF74A
:102630003EF90020FEF73BF94520FEF738F900206F
:10264000FEF735F94320FEF732F90020FEF72FF9A7
:102650004420FEF72CF90020FEF729F9E720FEF7C9
:102660001DF93220FEF723F90020FEF720F955204E
:10267000FEF71DF90020FEF71AF97620FEF717F98C
:102680000020FEF714F96620FEF711F90020FEF78E
:102690000EF96720FEF70BF90020FEF708F9672016
:1026A000FEF705F90020FEF702F98720FEF7FFF894
:1026B0000020FEF7FCF89920FEF7F9F80020FEF75D
:1026C000F6F8BB20FEF7F3F80020FEF7F0F89920AB
:1026D000FEF7EDF80020FEF7EAF87720FEF7E7F8BE
:1026E0000020FEF7E4F84420FEF7E1F80020FEF7B2
:1026F000DEF85620FEF7DBF80020FEF7D8F823209E
:10270000FEF7D5F80020FEF7D2F83320FEF7CFF819
:102710000020FEF7CCF84520FEF7C9F80020FEF7B0
:10272000C6F8E820FEF7BAF80020FEF7C0F800204F
:10273000FEF7BDF89920FEF7BAF80020FEF7B7F8CB
:102740008720FEF7B4F80020FEF7B1F88820FEF7E6
:10275000AEF80020FEF7ABF87720FEF7A8F80020CF
:10276000FEF7A5F86620FEF7A2F80020FEF79FF816
:102770008820FEF79CF80020FEF799F8AA20FEF7C3
:1027800096F80020FEF793F8BB20FEF790F80020A3
:10279000FEF78DF89920FEF78AF80020FEF787F8FB
:1027A0006620FEF784F80020FEF781F85520FEF73A
:1027B0007EF80020FEF77BF85520FEF778F8002021
:1027C000FEF775F84420FEF772F80020FEF76FF868
:1027D0004420FEF76CF80020FEF769F85520FEF75C
:1027E00066F80020FEF763F8E920FEF757F8AA2004
:1027F000FEF75DF80020FEF75AF80020FEF757F8C4
:102800000020FEF754F80020FEF748F8AA20FEF753
:102810004EF8CF20FEF742F80020FEF748F80020DF
:10282000FEF745F80020FEF742F80020FEF73FF8DB
:102830000020FEF73CF80020FEF739F80020FEF7F4
:1028400036F80020FEF733F80020FEF730F80020BD
:10285000FEF72DF80020FEF72AF80020FEF727F8F3
:102860000020FEF724F80020FEF721F80020FEF7F4
:102870001EF80020FEF71BF80020FEF718F8F020E5
:10288000FEF70CF80020FEF712F85020FEF70FF8C4
:102890000020FEF70CF80020FEF709F80020FEF7F4
:1028A00006F8F320FDF7FAFF0020FEF700F8F92004
:1028B000FDF7F4FF0620FDF7FAFF1020FDF7F7FF04
:1028C0002920FDF7F4FF0020FDF7F1FF3A20FDF786
:1028D000E5FF5520FDF7EBFF1120FDF7DFFF64203A
:1028E00001F0A0FC2920FDF7D9FF3520FDF7D6FF28
:1028F0000020FDF7DCFF5120FDF7D0FFFF20FDF7A2
:10290000D6FF5320FDF7CAFF2C20FDF7D0FF55203E
:10291000FDF7C4FF8220FDF7CAFF2C20FDF7BEFFA4
:1029200001F048B8FE48808845F2105188427DD1B8
:1029300055214FF47040FDF7CCFFAA214FF2010062
:10294000FDF7C7FF52214FF20200FDF7C2FF082139
:102950004FF20300FDF7BDFF01214FF20400FDF728
:10296000B8FF0D214FF43040FDF7B3FF0D214BF2BE
:102970000100FDF7AEFF0D214BF20200FDF7A9FFAC
:1029800034214FF43640FDF7A4FF34214BF20160AF
:10299000FDF79FFF34214BF20260FDF79AFF0D21F6
:1029A0004FF43140FDF795FF0D214BF20110FDF77B
:1029B00090FF0D214BF20210FDF78BFF34214FF4F5
:1029C0003740FDF786FF34214BF20170FDF781FFA0
:1029D00034214BF20270FDF77CFF00214FF43240AE
:1029E000FDF777FF00214BF20120FDF772FF002178
:1029F0004BF20220FDF76DFF24214FF43840FDF724
:102A000068FF24214BF60100FDF763FF24214BF6FC
:102A10000200FDF75EFF01214FF43F40FDF759FF33
:102A20000F214FF43340FDF754FF00E0FDE30F2189
:102A30004BF20130FDF74DFF0F214BF20230FDF755
:102A400048FF34214FF43940FDF743FF34214BF662
:102A50000110FDF73EFF34214BF60210FDF739FF60
:102A600008214FF43540FDF734FF08214BF20150A7
:102A7000FDF72FFF08214BF20250FDF72AFF03213B
:102A80004FF44240FDF725FF24214FF43A40FDF773
:102A900020FF24214BF60120FDF71BFF24214BF6DC
:102AA0000220FDF716FF00214FF43C40FDF711FF17
:102AB00078214BF60140FDF70CFF00214BF6024058
:102AC000FDF707FF00214FF43D40FDF702FF78219D
:102AD0004BF60150FDF7FDFE00214BF60250FDF7CD
:102AE000F8FE00214FF43E40FDF7F3FE64214BF663
:102AF0000160FDF7EEFE00214FF45140FDF7E9FEC5
:102B000033214DF20110FDF7E4FE00214DF20210D9
:102B1000FDF7DFFE34214DF20310FDF7DAFE002150
:102B20004DF20410FDF7D5FE3A214DF20510FDF7E8
:102B3000D0FE00214DF20610FDF7CBFE4A214DF2EA
:102B40000710FDF7C6FE00214DF20810FDF7C1FE8B
:102B50005C214DF20910FDF7BCFE00214DF20A1078
:102B6000FDF7B7FE81214DF20B10FDF7B2FE0021FB
:102B70004DF20C10FDF7ADFEA6214DF20D10FDF744
:102B8000A8FE00214DF20E10FDF7A3FEE5214DF247
:102B90000F10FDF79EFE01214DF21010FDF799FE7A
:102BA00013214DF21110FDF794FE01214DF2121088
:102BB000FDF78FFE54214DF21310FDF78AFE01211F
:102BC0004DF21410FDF785FE82214DF21510FDF730
:102BD00080FE01214DF21610FDF77BFECA214DF259
:102BE0001710FDF776FE02214DF21810FDF771FE69
:102BF00000214DF21910FDF76CFE02214DF21A1062
:102C0000FDF767FE01214DF21B10FDF762FE022168
:102C10004DF21C10FDF75DFE34214DF21D10FDF745
:102C200058FE02214DF21E10FDF753FE67214DF2B2
:102C30001F10FDF74EFE02214DF22010FDF749FE58
:102C400084214DF22110FDF744FE02214DF22210A5
:102C5000FDF73FFEA4214DF22310FDF73AFE0221BD
:102C60004DF22410FDF735FEB7214DF22510FDF78A
:102C700030FE02214DF22610FDF72BFECF214DF242
:102C80002710FDF726FE02214DF22810FDF721FE48
:102C9000DE214DF22910FDF71CFE02214DF22A1013
:102CA000FDF717FEF2214DF22B10FDF712FE022167
:102CB0004DF22C10FDF70DFEFE214DF22D10FDF70B
:102CC00008FE03214DF22E10FDF703FE10214DF2F8
:102CD0002F10FDF7FEFD03214DF23010FDF7F9FD39
:102CE00033214DF23110FDF7F4FD03214DF2321086
:102CF000FDF7EFFD6D214DF23310FDF7EAFD0021E8
:102D00004FF45240FDF7E5FD33214DF20120FDF770
:102D1000E0FD00214DF20220FDF7DBFD342101E052
:102D2000440000204DF20320FDF7D3FD00214DF2B9
:102D30000420FDF7CEFD3A214DF20520FDF7C9FD37
:102D400000214DF20620FDF7C4FD4A214DF2072077
:102D5000FDF7BFFD00214DF20820FDF7BAFD5C2113
:102D60004DF20920FDF7B5FD00214DF20A20FDF7D7
:102D7000B0FD81214DF20B20FDF7ABFD00214DF29E
:102D80000C20FDF7A6FDA6214DF20D20FDF7A1FDBB
:102D900000214DF20E20FDF79CFDE5214DF20F20A4
:102DA000FDF797FD01214DF21020FDF792FD132153
:102DB0004DF21120FDF78DFD01214DF21220FDF79E
:102DC00088FD54214DF21320FDF783FD01214DF2C2
:102DD0001420FDF77EFD82214DF21520FDF779FDCF
:102DE00001214DF21620FDF774FDCA214DF2172086
:102DF000FDF76FFD02214DF21820FDF76AFD00215D
:102E00004DF21920FDF765FD02214DF21A20FDF764
:102E100060FD01214DF21B20FDF75BFD02214DF20B
:102E20001C20FDF756FD34214DF21D20FDF751FD0C
:102E300002214DF21E20FDF74CFD67214DF21F20AF
:102E4000FDF747FD02214DF22020FDF742FD8421D0
:102E50004DF22120FDF73DFD02214DF22220FDF72C
:102E600038FDA4214DF22320FDF733FD02214DF260
:102E70002420FDF72EFDB7214DF22520FDF729FD79
:102E800002214DF22620FDF724FDCF214DF227200F
:102E9000FDF71FFD02214DF22820FDF71AFDDE216E
:102EA0004DF22920FDF715FD02214DF22A20FDF7F4
:102EB00010FDF2214DF22B20FDF70BFD02214DF20A
:102EC0002C20FDF706FDFE214DF22D20FDF701FD22
:102ED00003214DF22E20FDF7FCFC10214DF22F2096
:102EE000FDF7F7FC03214DF23020FDF7F2FC332112
:102EF0004DF23120FDF7EDFC03214DF23220FDF7BC
:102F0000E8FC6D214DF23320FDF7E3FC00214FF486
:102F10005340FDF7DEFC33214DF20130FDF7D9FCC3
:102F200000214DF20230FDF7D4FC34214DF2033084
:102F3000FDF7CFFC00214DF20430FDF7CAFC3A2129
:102F40004DF20530FDF7C5FC00214DF20630FDF7CE
:102F5000C0FC4A214DF20730FDF7BBFC00214DF2C9
:102F60000830FDF7B6FC5C214DF20930FDF7B1FCED
:102F700000214DF20A30FDF7ACFC81214DF20B30FF
:102F8000FDF7A7FC00214DF20C30FDF7A2FCA621B5
:102F90004DF20D30FDF79DFC00214DF20E30FDF796
:102FA00098FCE5214DF20F30FDF793FC01214DF225
:102FB0001030FDF78EFC13214DF21130FDF789FC26
:102FC00001214DF21230FDF784FC54214DF21330F3
:102FD000FDF77FFC01214DF21430FDF77AFC8221D0
:102FE0004DF21530FDF775FC01214DF21630FDF75D
:102FF00070FCCA214DF21730FDF76BFC02214DF237
:103000001830FDF766FC00214DF21930FDF761FC28
:1030100002214DF21A30FDF75CFC01214DF21B300C
:10302000FDF757FC02214DF21C30FDF752FC342114
:103030004DF21D30FDF74DFC02214DF21E30FDF723
:1030400048FC67214DF21F30FDF743FC02214DF291
:103050002030FDF73EFC84214DF22130FDF739FC94
:1030600002214DF22230FDF734FCA4214DF2233031
:10307000FDF72FFC02214DF22430FDF72AFCB72189
:103080004DF22530FDF725FC02214DF22630FDF7EB
:1030900020FCCF214DF22730FDF71BFC02214DF221
:1030A0002830FDF716FCDE214DF22930FDF711FC2A
:1030B00002214DF22A30FDF70CFCF2214DF22B30AB
:1030C000FDF707FC02214DF22C30FDF702FCFE213A
:1030D0004DF22D30FDF7FDFB03214DF22E30FDF7B3
:1030E000F8FB10214DF22F30FDF7F3FB03214DF2D9
:1030F0003030FDF7EEFB33214DF23130FDF7E9FBC7
:1031000003214DF23230FDF7E4FB6D214DF23330F7
:10311000FDF7DFFB00214FF45440FDF7DAFB3321CC
:103120004DF20140FDF7D5FB00214DF20240FDF7C5
:10313000D0FB34214DF20340FDF7CBFB00214DF2D3
:103140000440FDF7C6FB3A214DF20540FDF7C1FBF7
:1031500000214DF20640FDF7BCFB4A214DF207402D
:10316000FDF7B7FB00214DF20840FDF7B2FB5C21F3
:103170004DF20940FDF7ADFB00214DF20A40FDF78D
:10318000A8FB81214DF20B40FDF7A3FB00214DF27E
:103190000C40FDF79EFBA6214DF20D40FDF799FB7B
:1031A00000214DF20E40FDF794FBE5214DF20F405A
:1031B000FDF78FFB01214DF21040FDF78AFB132133
:1031C0004DF21140FDF785FB01214DF21240FDF754
:1031D00080FB54214DF21340FDF77BFB01214DF2A2
:1031E0001440FDF776FB82214DF21540FDF771FB8F
:1031F00001214DF21640FDF76CFBCA214DF217403C
:10320000FDF767FB02214DF21840FDF762FB00213C
:103210004DF21940FDF75DFB02214DF21A40FDF71A
:1032200058FB01214DF21B4000E005E3FDF751FB87
:1032300002214DF21C40FDF74CFB34214DF21D40A4
:10324000FDF747FB02214DF21E40FDF742FB6721CF
:103250004DF21F40FDF73DFB02214DF22040FDF7EE
:1032600038FB84214DF22140FDF733FB02214DF262
:103270002240FDF72EFBA4214DF22340FDF729FB50
:1032800002214DF22440FDF724FBB7214DF22540E9
:10329000FDF71FFB02214DF22640FDF71AFBCF215F
:1032A0004DF22740FDF715FB02214DF22840FDF7B6
:1032B00010FBDE214DF22940FDF70BFB02214DF200
:1032C0002A40FDF706FBF2214DF22B40FDF701FBF2
:1032D00002214DF22C40FDF7FCFAFE214DF22D406B
:1032E000FDF7F7FA03214DF22E40FDF7F2FA102117
:1032F0004DF22F40FDF7EDFA03214DF23040FDF77E
:10330000E8FA33214DF23140FDF7E3FA03214DF2A3
:103310003240FDF7DEFA6D214DF23340FDF7D9FA68
:1033200000214FF45540FDF7D4FA33214DF20150FE
:10333000FDF7CFFA00214DF20250FDF7CAFA342111
:103340004DF20350FDF7C5FA00214DF20450FDF790
:10335000C0FA3A214DF20550FDF7BBFA00214DF2BB
:103360000650FDF7B6FA4A214DF20750FDF7B1FAC3
:1033700000214DF20850FDF7ACFA5C214DF20950E6
:10338000FDF7A7FA00214DF20A50FDF7A2FA8121BC
:103390004DF20B50FDF79DFA00214DF20C50FDF758
:1033A00098FAA6214DF20D50FDF793FA00214DF247
:1033B0000E50FDF78EFAE5214DF20F50FDF789FA18
:1033C00001214DF21050FDF784FA13214DF21150F6
:1033D000FDF77FFA01214DF21250FDF77AFA5421E0
:1033E0004DF21350FDF775FA01214DF21450FDF71F
:1033F00070FA82214DF21550FDF76BFA01214DF262
:103400001650FDF766FACA214DF21750FDF761FA22
:1034100002214DF21850FDF75CFA00214DF21950CF
:10342000FDF757FA02214DF21A50FDF752FA012129
:103430004DF21B50FDF74DFA02214DF21C50FDF7E5
:1034400048FA34214DF21D50FDF743FA02214DF2A6
:103450001E50FDF73EFA67214DF21F50FDF739FA75
:1034600002214DF22050FDF734FA84214DF2215013
:10347000FDF72FFA02214DF22250FDF72AFAA4217E
:103480004DF22350FDF725FA02214DF22450FDF7AD
:1034900020FAB7214DF22550FDF71BFA02214DF21B
:1034A0002650FDF716FACF214DF22750FDF711FAFD
:1034B00002214DF22850FDF70CFADE214DF2295081
:1034C000FDF707FA02214DF22A50FDF702FAF22128
:1034D0004DF22B50FDF7FDF902214DF22C50FDF776
:1034E000F8F9FE214DF22D50FDF7F3F903214DF2CD
:1034F0002E50FDF7EEF910214DF22F50FDF7E9F9AE
:1035000003214DF23050FDF7E4F933214DF23150F3
:10351000FDF7DFF903214DF23250FDF7DAF96D21A5
:103520004DF23350FDF7D5F900214FF45640FDF729
:10353000D0F933214DF20160FDF7CBF900214DF2B6
:103540000260FDF7C6F934214DF20360FDF7C1F9C1
:1035500000214DF20460FDF7BCF93A214DF20560FF
:10356000FDF7B7F900214DF20660FDF7B2F94A21E7
:103570004DF20760FDF7ADF900214DF20860FDF74F
:10358000A8F95C214DF20960FDF7A3F900214DF285
:103590000A60FDF79EF981214DF20B60FDF799F964
:1035A00000214DF20C60FDF794F9A6214DF20D605B
:1035B000FDF78FF900214DF20E60FDF78AF9E52144
:1035C0004DF20F60FDF785F901214DF21060FDF716
:1035D00080F913214DF21160FDF77BF901214DF2C5
:1035E0001260FDF776F954214DF21360FDF771F981
:1035F00001214DF21460FDF76CF982214DF2156046
:10360000FDF767F901214DF21660FDF762F9CA2155
:103610004DF21760FDF75DF902214DF21860FDF7DC
:1036200058F900214DF21960FDF753F902214DF2CE
:103630001A60FDF74EF901214DF21B60FDF749F9C3
:1036400002214DF21C60FDF744F934214DF21D605A
:10365000FDF73FF902214DF21E60FDF73AF96721AF
:103660004DF21F60FDF735F902214DF22060FDF7A4
:1036700030F984214DF22160FDF72BF902214DF242
:103680002260FDF726F9A4214DF22360FDF721F910
:1036900002214DF22460FDF71CF9B7214DF225609F
:1036A000FDF717F902214DF22660FDF712F9CF213F
:1036B0004DF22760FDF70DF902214DF22860FDF76C
:1036C00008F9DE214DF22960FDF703F902214DF2E0
:1036D0002A60FDF7FEF8F2214DF22B60FDF7F9F8B4
:1036E00002214DF22C60FDF7F4F8FE214DF22D6021
:1036F000FDF7EFF803214DF22E60FDF7EAF81021F7
:103700004DF22F60FDF7E5F803214DF23060FDF733
:10371000E0F833214DF23160FDF7DBF803214DF283
:103720003260FDF7D6F86D214DF23360FDF7D1F828
:1037300055214FF47040FDF7CCF8AA214FF201005B
:10374000FDF7C7F852214FF20200FDF7C2F8082139
:103750004FF20300FDF7BDF800214FF20400FDF722
:10376000B8F8CC214FF43140FDF7B3F800214BF20B
:103770000110FDF7AEF805214FF43640FDF7A9F82A
:1037800070214FF43740FDF7A4F870214BF201701F
:10379000FDF79FF801214FF43840FDF79AF8032117
:1037A0004BF60100FDF795F803214BF60200FDF7FB
:1037B00090F803214BF60300FDF78BF802214FF43C
:1037C0003C40FDF786F800214BF60140FDF781F8FB
:1037D00000214BF60240FDF77CF8D0214FF4494020
:1037E000FDF777F802214CF60110FDF772F8502131
:1037F0004CF60210FDF76DF850214CF60310FDF762
:1038000068F850214CF60410FDF763F800214FF4DE
:103810005450FDF75EF855214FF46850FDF759F804
:103820004FF48850FDF73AF8782000F0B3FC4FF4DD
:103830002450FDF733F8BDE0FE48808841F663115F
:103840008842F8D1E220FDF729F81D20FDF72FF876
:103850000220FDF72CF80420FDF729F8642000F081
:1038600099FCE020FDF71AF80120FDF720F80A2066
:1038700000F0D8FCE020FDF711F80320FDF717F861
:103880000C2000F0CFFC0120FDF708F80A2000F022
:10389000C9FCE620FDF702F82F20FDF708F8FF200D
:1038A000FDF705F8FF20FDF702F8B020FCF7F6FF62
:1038B0002020FCF7FCFF0020FCF7F9FF0320FCF7B9
:1038C000F6FF40F21F30FCF7F2FF0120FCF7EFFF9C
:1038D00040F2DF10FCF7EBFF0020FCF7E8FFB4201C
:1038E000FCF7DCFF0420FCF7E2FF40F21F40FCF78E
:1038F000DEFF0020FCF7DBFF2E20FCF7D8FF0020C6
:10390000FCF7D5FF0020FCF7D2FF0020FCF7CFFF2B
:103910000020FCF7CCFFB620FCF7C0FF0220FCF72C
:10392000C6FF4FF40370FCF7C2FF0020FCF7BFFF97
:103930001720FCF7BCFF1520FCF7B9FF0020FCF7AF
:10394000B6FF0020FCF7B3FFF020FCF7A7FF032031
:10395000FCF7ADFF2920FCF7A1FFD020FCF79EFF6C
:103960000020FCF7A4FFBE20FCF798FF0520FCF721
:103970009EFFFE20FCF79BFF0120FCF798FF002034
:10398000FCF795FF0020FCF792FF0020FCF78FFF6B
:10399000B820FCF783FF0320FCF789FF0120FCF728
:1039A00086FFBA20FCF77AFF0120FCF780FF642035
:1039B000FDF74FFA0020FDF778FA01209E490860D4
:1039C0004FF6FF70FDF7C6FB21B000BD2DE9F04FAB
:1039D00005460E4617469846DDF824A04FF0000B2A
:1039E000781B401C1FFA80FB344614E02146284611
:1039F000FCF79EFFFCF77FFF4FF0000907E04FF058
:103A0000D840A0F880A009F101001FFA80F9D9453B
:103A1000F5DB601C84B24445E8DDBDE8F08F2DE99C
:103A2000F84F07460D4690469946DDF828B0A8EBBA
:103A30000700401C1FFA80FAA9EB0500401C80B269
:103A40000090002414E0281981B23846FCF770FF7A
:103A5000FCF751FF002607E004FB0A603BF810006A
:103A600076490880701C86B25645F5DB601C84B22E
:103A700000988442E7DBBDE8F88F2DE9FF4F84B062
:103A800081468A460020039002900698A0EB090523
:103A90000798A0EB0A06CDF80490CDF800A0002D01
:103AA00001DD012705E00DB9002702E04FF0FF37E7
:103AB0006D42002E02DD4FF0010806E016B94FF00E
:103AC000000802E04FF0FF387642B54201DD2C4697
:103AD00000E034464FF0000B21E0009A91B2019AC9
:103AE00090B2FDF731F903982844039002983044CE
:103AF00002900398A04205DD0398001B03900198F3
:103B0000384401900298A04205DD0298001B029003
:103B10000098404400900BF101001FFA80FB601CEC
:103B20008345DADD08B0BDE8F08FF0B504460D46F8
:103B300016461F462B46324629462046FFF79DFF74
:103B40003B46224629462046FFF797FF3B46324632
:103B500039462046FFF791FF3B463246294630461C
:103B6000FFF78BFFF0BD2DE9F04306460F46904668
:103B7000002445460320A0EB48093CE07A1B91B2A3
:103B8000321990B2FDF7E0F83A1B91B2721990B277
:103B9000FDF7DAF83A1991B2721990B2FDF7D4F83C
:103BA0007A1991B2321990B2FDF7CEF87A1991B222
:103BB000321B90B2FDF7C8F83A1991B2721B90B25D
:103BC000FDF7C2F87A1B91B2321B90B2FDF7BCF838
:103BD0003A1B91B2721B90B2FDF7B6F8641CB9F1B2
:103BE000000F03DAA000801D814404E0601B800008
:103BF0000A3081446D1EAC42C0DDBDE8F0832DE982
:103C0000F84F80460E4617461C46B3462046E3173B
:103C100004EB5373DB1021464FEAE47C04EB5C7C3D
:103C20004FEAEC0CA4EBCC0CBCF1000F08D04FF029
:103C3000010C07E044000020BC8240428000006C80
:103C40004FF0000C6344224604EBD27C4FEA6C0C2C
:103C500003FB0CF3DBB20093A7F12000C7B20025F1
:103C600056E00C2C07D107EB47009F4901EB800081
:103C700010F8059013E0102C05D19C4800EB0710BC
:103C800010F805900BE0182C07D107EBC7009849F6
:103C900001EB800010F8059001E0BDE8F88F4FF0CF
:103CA000000A2FE009F0800030B1924802883146C6
:103CB0004046FDF757F807E00A9828B98E48028871
:103CC00031464046FDF74EF84FEA49604FEA106929
:103CD000701C86B289484088B04200DCDDE7A6EB64
:103CE0000B00A0420AD15E4608F101001FFA80F8DD
:103CF00082480088404500DCCFE706E00AF1010079
:103D000000F0FF0ABAF1080FCCDB00BF681CC5B297
:103D100000988542A5DB00BFBFE710B50246012031
:103D200000E050430B1EA1F10104E1B2F9D110BD36
:103D30002DE9FF4F81B0074691461E460E9D4FF07C
:103D4000000A002439E0301B401EC1B20A20FFF7F0
:103D5000E4FFB9FBF0F00A21B0FBF1F201FB12081D
:103D6000BAF1000F16D1701EA04213DDB8F1000F9A
:103D70000ED10020AB4605EBDB71491001FB04714D
:103D8000009088B22B4620220299FFF738FF12E0FC
:103D90004FF0010A0020AB4605EBDB71491001FB37
:103DA0000471009088B208F13001CAB22B46029922
:103DB000FFF725FF00BF601CC4B2B442C3DB05B0EF
:103DC000BDE8F08F2DE9FF4F82B0064692461F46B0
:103DD000DDE90F480020019000254DE0781B401ED2
:103DE000C1B20A20FFF799FFBAFBF0F00A21B0FB3D
:103DF000F1F201FB1209019850BB781EA84227DDA1
:103E0000B9F1000F22D108F0800078B108F001006C
:103E1000A34604EBDB71491001FB0561009088B2F9
:103E2000234630220399FFF7EAFE0EE008F0010076
:103E3000A34604EBDB71491001FB0561009088B2D9
:103E4000234620220399FFF7DAFE13E001200190B8
:103E500008F00100A34604EBDB71491001FB05618A
:103E6000009088B209F13001CAB223460399FFF7E6
:103E7000C6FE00BF681CC5B2BD42AFDB06B0BDE8E0
:103E8000F08F2DE9F84704460D4690469946DDE946
:103E9000096704F0FF0A08EB04001FFA80F809EB39
:103EA00005001FFA80F916E0444502DB5446A819C4
:103EB00085B24D4500DB14E0002000903A7833468F
:103EC00029462046FFF79BFE304606EBD07104EBF7
:103ED00061018CB27F1C38787E2802DC387820287B
:103EE000E2DA00BFBDE8F8870265000876690008DD
:103EF000666F000814000020160000204400002017
:103F00001CB50121112001F033FC1C200090002081
:103F10008DF8040003208DF8050001208DF80700BE
:103F20006946354800F058FB0120009002208DF8CA
:103F300007006946314800F04FFB1CBD10B5044630
:103F400014B101202E4908702D480078002837D080
:103F50001021294800F0A2FB78B10821264800F082
:103F60009DFB50B10421244800F098FB28B10121A9
:103F7000224800F093FB012822D10A2000F052F9D8
:103F800000201F49087010211B4800F087FB08B96A
:103F9000012010BD0821184800F080FB08B902205C
:103FA000F7E70421144800F079FB08B90320F0E793
:103FB0000121124800F072FB01281BD10420E8E720
:103FC00010210D4800F06AFB012813D108210A488E
:103FD00000F064FB01280DD10421074800F05EFBCE
:103FE000012807D10121054800F058FB10B9012034
:103FF000034908700020CCE7001002400000024096
:104000001800002001460868704701464848814270
:1040100001D2002070474748814201D20820F9E7C9
:104020004548814201D21020F4E74448814201D240
:104030001820EFE74248814201D22020EAE74148B8
:10404000814201D22820E5E73F48814201D2302059
:10405000E0E73E48814201D23820DBE73C4881421C
:1040600001D24020D6E73B48814201D24820D1E727
:104070003948814201D25020CCE75820CAE72DE9C7
:10408000F04704460E4617464FF009080025A9469A
:10409000B4F1006F02D304F0030008B1BDE8F0876B
:1040A00000F080FE002000F060FE254604EB87094A
:1040B0002A48854215D211E02846FFF7A3FF401C8D
:1040C00058B12846FFF7A1FF8246022100F0BEFE4C
:1040D0008046B8F1090F01D002E02D1D4D45EBD30C
:1040E00000BFB8F1090F0CD108E02046316800F09C
:1040F000C6FF092800D003E0241D361D4C45F4D32B
:1041000000BF012000F031FE00F059FE00BFC5E7FE
:1041100030B503460C461546002206E01846FFF768
:1041200071FF44F822001B1D521CAA42F6D330BD79
:10413000004000080080000800C0000800000108DE
:10414000000002080000040800000608000008083B
:1041500000000A0800000C0800000E080000FF1F05
:1041600010B504466FF0040000F092F9E11704EB7B
:104170005171C1F3C701394A11701046007800EB44
:104180004001C1EBC0104FF6FF7101EAC000344995
:10419000088010BD0146314A12784A434FF0E023AF
:1041A0005A6100229A611A46126942F001021A61AC
:1041B00000BF4FF0E022106900F001021AB100F4D4
:1041C0008032002AF5D04FF0E022126922F001027D
:1041D0004FF0E0231A6100229A6170470146204A9D
:1041E00012884A434FF0E0235A6100229A611A462E
:1041F000126942F001021A6100BF4FF0E02210691B
:1042000000F001021AB100F48032002AF5D04FF01C
:10421000E022126922F001024FF0E0231A6100222D
:104220009A61704770B504464FF4077094FBF0F044
:10423000C6B24FF4077094FBF0F100FB114085B259
:1042400005E04FF40770FFF7C9FF701EC6B2002EDD
:10425000F7D115B12846FFF7C1FF70BD1A00002045
:104260001C00002000BF704700BF4C4A128802F0BB
:104270004002002AF9D0C2B2484B9A80704710B56C
:1042800088B004460121084601F072FA012110208D
:1042900001F0C8FA07220921414800F028FA072254
:1042A0000A213F4800F023FA4FF4C0600690022034
:1042B0008DF81C008DF81D0000208DF81E000120D7
:1042C0008DF81F0006A9364800F086F902940020F8
:1042D000ADF80C00ADF80E00ADF81000ADF814000C
:1042E0000C20ADF8120002A92C4801F0FCFB0121C2
:1042F0002A4801F080FC012240F22551274801F0B4
:1043000030FD25208DF8040003208DF805008DF880
:10431000060001208DF8070001A800F06CF808B035
:1043200010BD10B540F225511C4801F055FD10B3E9
:104330001A4801F08FFCC4B21A48008800F400400B
:10434000C8B91848008800F4804060B10A2C03D036
:1043500000201449088020E01248008840F4004002
:104360001049088019E00D2C06D10E48008840F451
:1043700080400C49088010E00A480088C0F30D0016
:1043800009490C5407480088401C06490880084623
:104390000088C72801DD0020088010BD0010014002
:1043A00000000240240000205200002009488047FD
:1043B00009480047FEE7FEE7FEE7FEE7FEE7FEE707
:1043C000FEE7FEE7FEE7FEE704480549054A064B1F
:1043D00070470000290700088901000880010020BB
:1043E0008007002080030020800300203249014321
:1043F000324A1160704770B5002100230F22C47843
:104400001CB32E4C246804F4E064C4F5E064C4F3E7
:104410000721C1F10404E3B20A4144789C40E1B2AF
:104420008478144021430C07210E254C05786155F2
:10443000047804F01F050124AC4005786D11AD002F
:1044400005F1E025C5F8004109E0047804F01F05F6
:104450000124AC401B4D0678761145F8264070BD0E
:10446000194A0A400243154B1B1F1A60704739B1A5
:10447000124A121D12680243104B1B1D1A6006E0FF
:104480000E4A121D126882430C4B1B1D1A607047A6
:10449000042808D14FF0E021096941F004014FF0F0
:1044A000E022116107E04FF0E021096921F00401E9
:1044B0004FF0E022116170470000FA050CED00E0BA
:1044C00000E400E080E100E080FFFF1F10B504463B
:1044D0009848844208D10121084601F0B4F900212E
:1044E000012001F0B0F976E09348844208D101211F
:1044F000022001F0A8F90021022001F0A4F96AE0ED
:104500008E48844208D10121042001F09CF9002149
:10451000042001F098F95EE08948844208D1012125
:10452000082001F090F90021082001F08CF952E0F8
:104530008448844208D10121102001F084F900212F
:10454000102001F080F946E07F48844208D1012123
:10455000202001F078F90021202001F074F93AE0E0
:104560007A48844208D10121402001F06CF90021F1
:10457000402001F068F92EE07548844208D10121FD
:10458000802001F060F90021802001F05CF922E038
:104590007048844208D10121801501F054F90021AE
:1045A000A01501F050F916E06B48844208D10121B2
:1045B000401501F048F90021601501F044F90AE0C6
:1045C0006648844207D10121001501F03CF9002121
:1045D000201501F038F910BDF0B50A46002100237E
:1045E000002400BF3DE0012505FA01F3156805EA46
:1045F00003049C4234D105684F000326BE40B543F6
:10460000056015794E00B54006683543056015799B
:10461000012D02D01579022D16D185684F00032691
:10462000BE40B543856055794E00B5408668354338
:104630008560456801268E40B5434560456896799A
:104640008E40B6B235434560C5684F000326BE4074
:10465000B543C560D5794E00B540C6683543C560E1
:10466000491C1029BFD3F0BD4FF6FF710160002136
:10467000017141718171C171704708B54FF4803289
:104680000092009A0A430092009AC261C161009AA6
:10469000C261C2690092C269009208BD0246002050
:1046A00013690B400BB1012000E000207047014668
:1046B000086980B270470246002053690B400BB175
:1046C000012000E0002070470146486980B2704731
:1046D00001837047418370470AB1018300E0418341
:1046E00070474161704742694A4042617047F0B586
:1046F000002300244D07ED0E02FA05F3CE1000F161
:10470000200555F826504E07F70E0F26BE40B5433C
:10471000CF1000F1200646F82750CE1000F12005FA
:1047200055F8265045EA0304CE1000F1200545F85F
:104730002640F0BD00000240000402400008024094
:10474000000C024000100240001402400018024019
:10475000001C0240002002400024024000280240C9
:1047600030B943F2DB028100A1F1C0410A6005E0EB
:1047700043F2D2028100A1F1C0410A606FF07042A1
:10478000411C8900A1F1C0410A608100A1F1C04132
:10479000C1F804217047D0E901121143C2681143E6
:1047A000026911434269114382691143C26911438D
:1047B000026A1143426A1143826A1143C26A114379
:1047C000026B114302689200A2F1C042116081683D
:1047D00008290BD101688900A1F1C041096841F0A5
:1047E000400201688900A1F1C0410A60416B09687B
:1047F000426B526841EA0211426B926841EA02211F
:10480000426B928941EA0241426B128A41EA0251AB
:10481000426B127D41EA0261426B92691143026868
:10482000521C9200A2F1C0421160C16AB1F5804FE2
:104830001BD1816B0968826B526841EA0211826B5D
:10484000926841EA0221826B128A41EA0251826B2C
:10485000127D41EA0261826B926911430268920003
:10486000A2F1C042C2F8041107E06FF07042016883
:104870008900A1F1C041C1F8042170470021016005
:104880000221416000218160C1600161416181615B
:10489000C16101624FF4805141624900816200218F
:1048A000C1620163F84941638163704751B182007D
:1048B000A2F1C042126842F001038200A2F1C0429C
:1048C000136009E08200A2F1C0421268EF4B1A4067
:1048D0008300A3F1C0431A60704710280AD1182141
:1048E0004FF020421166402151664FF0FC31916635
:1048F000D16610E01821E64A116040214FF02042B5
:10490000C2F884104FF0FC31E14A083211604FF0D8
:104910002042C2F88C10704730B5002100220023DD
:10492000446844F0080485682C43C5682C43056935
:104930002C43456944EA4524856944EA4531C46904
:104940002468C5696D6844EA0524C5692D8944EA6F
:104950000544C5692D7B44EA0562046A2468056A3A
:104960006D6844EA0524056A2D8944EA0544056A10
:104970002D7B44EA05630468102C05D14FF02044D8
:104980002166A266E36608E0C14C21604FF0204436
:10499000C4F88820BE4C0C34236030BD1021016067
:1049A000002141608160C160016141618161FC2140
:1049B000C2691160C2695160C2699160C269D16007
:1049C000026A1160026A5160026A9160026AD160F3
:1049D000704799B1102808D14FF02042126E42F072
:1049E00004024FF020431A661DE0A94A126842F003
:1049F00004024FF02043C3F8802014E0102809D1AE
:104A00004FF02042126EA14BDB1E1A404FF02043A4
:104A10001A6608E09E4A12689C4BDB1E1A404FF053
:104A20002043C3F88020704799B1102808D14FF077
:104A30002042126E42F040024FF020431A661DE001
:104A4000934A126842F040024FF02043C3F880209E
:104A500014E0102809D14FF02042126E8B4B3F3BDF
:104A60001A404FF020431A6608E0894A1268874BC3
:104A70003F3B1A404FF02043C3F880207047014667
:104A80000020102903D14FF02042506F02E0804AED
:104A900014321068704718207D49203108600020CA
:104AA0000906C1F8A4004FF0FC30794928310860AC
:104AB000091D0860091D08607047016841F0100178
:104AC000426841EA4221826841EA4231704A20321A
:104AD0001160C1680968C268526841EA0221C2686F
:104AE000128941EA0241C268127B41EA0261684AC6
:104AF00028321160016909680269526841EA02219D
:104B00000269128941EA02410269127B41EA0261AB
:104B10005F4A2C321160416909684269526841EA72
:104B200002214269128941EA02414269127B41EA4B
:104B300002614FF02042C2F8B010704700210160BE
:104B400041608160FC21C2681160C2685160C26826
:104B50009160C268D16002691160026951600269A6
:104B600091600269D1604269116042695160426995
:104B700091604269D160704748B145492031096868
:104B800041F004014FF02042C2F8A01009E0404972
:104B9000203109683D4AD21E11404FF02042C2F830
:104BA000A010704710B5F2B1102807D14FF0204384
:104BB0005B6E0B434FF02044636632E0B0F5807FBC
:104BC00008D1334B1B1D1B680B434FF02044C4F826
:104BD000843026E02E4B24331B680B434FF02044D7
:104BE000C4F8A4301DE0102807D14FF020435B6EBD
:104BF0008B434FF02044636613E0B0F5807F08D10B
:104C0000234B1B1D1B688B434FF02044C4F884309A
:104C100007E01F4B24331B688B434FF02044C4F83C
:104C2000A43010BD10B5024600200023102A03D185
:104C30004FF02044636E09E0B2F5807F03D1144C3D
:104C4000241D236802E0124C2434236803EA010483
:104C50000CB1012000E0002010BD102807D14FF05A
:104C60002042526E8A434FF020435A6619E0B0F555
:104C7000807F0FD1064A121D12688A434FF02043ED
:104C8000C3F884200DE00000C47C0008FEFF0F0084
:104C9000800000A0234A12688A434FF02043C3F8E3
:104CA000A420704770B50246002000230024002590
:104CB000102A03D14FF02046736E08E0B2F5807FD2
:104CC00003D1184E203E336801E0164E336803EAE4
:104CD000010403EAD10514B10DB1012000E0002068
:104CE00070BD102808D14FF02042526E22EAD10246
:104CF0004FF020435A6614E0B0F5807F09D1094A8D
:104D0000203A126822EAD1024FF02043C3F88420EF
:104D100007E0044A126822EAD1024FF02043C3F8A8
:104D2000A4207047A40000A0FE4A1070704730B164
:104D3000FC49096841F48071FA4A116005E0F949BB
:104D4000096821F48071F74A1160704730B1F54964
:104D5000096841F40071F34A116005E0F1490968FE
:104D600021F40071EF4A1160704730B1ED490968D4
:104D700041F48061EB4A116005E0EA49096821F4D9
:104D80008061E84A11607047E648006840F40060BE
:104D9000E44908607047E348006840F48050E14906
:104DA00008607047DF481030006800F0004028B10C
:104DB000DD48DC49091D0860DC4808607047D948B7
:104DC0001030006840F00040D6491031086070474C
:104DD0000920D4490C31096801F48031B1F5803FD4
:104DE00001D1012020E0CF490C31096801F0100108
:104DF00009B1062018E0CB490C31096801F4807133
:104E000009B1022010E0C7490C31096801F0EF0137
:104E100009B1072008E0C3490C31096801F002011B
:104E200009B1082000E00920704708B5092000906A
:104E3000FFF7CEFF009002E0FFF7CAFF00909DF859
:104E400000000128F8D09DF8000008BD70B50446A8
:104E50000A460026092502B909E0012A01D11602F5
:104E600005E0022A01D1160201E04FF44076FFF777
:104E7000DCFF0546092D2DD1AA481030006820F42A
:104E80004070A84910310860084600683043086047
:104E90000846006820F0F80008600846006844F002
:104EA000020108439F49103108600846006840F439
:104EB00080300860FFF7B9FF05469A481030006857
:104EC00020F002009749103108600846006820F081
:104ED000F8000860284670BD30B502460025092458
:104EE000FFF7A3FF044602B909E0012A01D1150228
:104EF00005E0022A01D1150201E04FF44075092CAA
:104F000020D188481030006820F440708549103165
:104F1000086008460068284308600846006840F0BA
:104F2000040008600846006840F480300860FFF71D
:104F30007CFF04467B481030006820F0040079496B
:104F400010310860204630BD30B5024600250924E6
:104F5000FFF76BFF044602B909E0012A01D11502EF
:104F600005E0022A01D1150201E04FF44075092C39
:104F700020D16C481030006820F44070694910312D
:104F8000086008460068284308600846006840F04A
:104F9000040008600846006840F480300860FFF7AD
:104FA00044FF04465F481030006820F004005D496B
:104FB00010310860204630BD30B502460025092476
:104FC000FFF733FF044602B909E0012A01D11502B7
:104FD00005E0022A01D1150201E04FF44075092CC9
:104FE00020D150481030006820F440704D491031F5
:104FF000086008460068284308600846006840F4D6
:10500000004008600846006840F480300860FFF700
:105010000CFF044643481030006820F4004041492A
:1050200010310860204630BD70B5064614461D4656
:105030000922FFF7FAFE0246092A1ED1394810302C
:10504000006820F440703749103108600846006855
:1050500040F4407008600846006840F001000860B5
:1050600034607560FFF7E1FE02462E48103000689C
:1050700020F001002B4910310860104670BD30B59A
:1050800002460C460925FFF7D0FE0546092D1DD125
:1050900024481030006820F4407022491031086024
:1050A0000846006840F4007008600846006840F058
:1050B000010008601460FFF7B8FE0546194810307B
:1050C000006820F00100174910310860284630BD03
:1050D00030B502460C460925FFF7A7FE0546092D07
:1050E0001DD110481030006820F440700D49103177
:1050F00008600846006840F4807008600846006850
:1051000040F0010008601480FFF78FFE0546054857
:105110001030006820F00100024910310860284674
:1051200030BD0000003C024023016745AB89EFCD54
:1051300030B502460C460925FFF777FE0546092DD6
:1051400017D19B48006820F44070994908600846D0
:10515000006808600846006840F0010008601470AC
:10516000FFF763FE05469248006820F00100904971
:105170000860284630BD8E48001D006800F0010020
:1051800028B18C488A49083908608B480860704704
:105190008748001D006840F001008549091D08602E
:1051A000704730B502460C460925FFF73EFE05461E
:1051B000092D10D13CB17E48801D008890437C4968
:1051C000891D088007E07A48801D008891B2084355
:1051D0007749891D088030BD30B502460C46092547
:1051E000FFF723FE0546092D10D13CB170480A3067
:1051F000008890436E490A31088007E06C480A3005
:10520000008891B208436A490A31088030BDFF2105
:10521000674AD21D127802F07F0140EA0102644B16
:10522000DB1D1A70704730B502460C460925FFF7A2
:10523000FCFD0546092D10D144B15D48801D008854
:1052400091B208435A49891D088006E05848801DDC
:10525000008890435649891D088030BD30B502460C
:105260000C460925FFF7E1FD0546092D10D144B193
:105270004F480A30008891B208434D490A310880EE
:1052800006E04B480A300088904349490A310880BB
:1052900030BD10B502460924FFF7C7FD0446092CAE
:1052A00002D14348401D027010BDF0B504460D46C2
:1052B000FF260927FFF7B9FD0746092F0BD13C4808
:1052C000001D007800F00F0645EA06001043204359
:1052D0003749091D0870F0BD3549091D097821F0CD
:1052E0001001334A121D11701146097801431170E3
:1052F00070472F49091D097821F00C012C4A121D15
:1053000011701146097801431170704700B50922E8
:105310002748001D007840F002002549091D08704B
:10532000FFF783FD0246104600BD2148001D0068BE
:10533000C0F3471070471E48801D008870471C4806
:105340000A30008870471A48801D00887047184846
:105350000A300088704700201549491D0978AA299C
:1053600001D0012000E0002070471148001D0078A6
:1053700000F00C00704729B10D4A126802430C4B33
:105380001A6004E00A4A12688243094B1A607047A7
:1053900001460020064A121F12680A400AB1012085
:1053A00000E0002070470249091F086070470000B4
:1053B000103C02403B2A19087F6E5D4CF94800689A
:1053C00040F00100F74908600020F6490831086004
:1053D000F4480068F4490840F2490860F348091DA0
:1053E0000860F348EF4984310860F0481038091D1F
:1053F0000860EC48006820F48020EA49086000203A
:10540000E8490C310860E7498C3108607047002199
:10541000E44A921C117011460870704710B501469D
:105420000022002300204A11012A02D1DD4C23680A
:1054300008E0022A03D1DB4C7034236802E0D94C27
:105440007434236801F01F02012494401C400CB105
:10545000012000E0002010BD38B50020009000249D
:10546000002500BF3120FFF7D9FF05460098401CFA
:1054700000900098B0F5A04F01D0002DF2D031205F
:10548000FFF7CCFF08B1012400E00024204638BD1E
:1054900001460020C34A106820F0F80040EAC1002D
:1054A00010607047C349086070470021BD4A7032E0
:1054B00011701170012802D004280AD104E00121E2
:1054C000B84A7032117005E00521B64A7032117089
:1054D00000E000BF00BF7047B7490860704770B573
:1054E000049C41EA82150126C6EB530645EA0645AF
:1054F000054345EA0465AB4E361D356070BDAD49C8
:1055000008667047820142EA0172A64B84331A6032
:105510007047A8498866704710B5830143EA016364
:1055200043EA02739F4C8834236010BDA149086789
:105530007047A049C864704702460020994B083361
:10554000186820F0EC6042EA01031843954B0833D9
:105550001860704702460020924B0833186820F00C
:10556000784042EA010318438E4B083318607047B5
:10557000014600208B4A0832106820F003000843DF
:105580001060704787480830006800F00C007047D2
:1055900001460020834A0832106820F0F0000843DA
:1055A00010607047014600207E4A0832106820F4DF
:1055B000E05008431060704701460020794A0832E5
:1055C000106820F4604040EAC10010607047F0B5F8
:1055D000002100220024022500260223714F0837F3
:1055E0003F6807F00C0121B1042905D0082937D103
:1055F00005E0724F076036E0714F076033E0694F96
:105600003F1D3F68C7F38056664F3F1D3F6807F058
:105610003F036EB16A4FB7FBF3F7DFF888C10CF1B7
:10562000040CDCF800C0CCF3881C07FB0CF40CE085
:10563000624FB7FBF3F7DFF86CC10CF1040CDCF838
:1056400000C0CCF3881C07FB0CF4564F3F1D3F688D
:10565000C7F301477F1C7D00B4FBF5F7076002E04C
:10566000564F076000BF00BF4E4F08373F6807F036
:10567000F0010909534F7A5C0768D7404760494FEA
:1056800008373F6807F4E051890A4E4F7A5C476853
:10569000D7408760434F08373F6807F46041490BA4
:1056A000484F7A5C4768D740C760F0BD002100F4DE
:1056B0004072B2F5407F0AD13A4A0832116821F4AB
:1056C000F811414A02401143364A08321160354A06
:1056D00070321268C0F30B031A43324B70331A60F6
:1056E000704735494439086070473349403908608C
:1056F000704736490860704701460020294A8C32BD
:10570000106820F01F004A1E1043264A8C32106099
:10571000704701460020234A8C32106820F4F8506C
:105720004A1E40EA02201F4A8C3210607047014630
:1057300000201C4A8C32106820F44010084310608E
:10574000704701460020174A8C32106820F4400050
:1057500008431060704701460020124A8C321068DE
:1057600020F44030084310607047194908607047C2
:1057700039B10C4A3032126802430A4B30331A6096
:1057800006E0084A303212688243064B30331A6012
:105790007047F9B1034A343212680243014B343383
:1057A0001A601CE000380240FFFFF6EA10300024C7
:1057B0000030002000004742800E47420024F400E1
:1057C00000127A0026000020FFFCFF0F5C01474218
:1057D000E01147428F4A126882438E4B1A6070472D
:1057E00039B18C4A121D126802438A4B1B1D1A6084
:1057F00006E0884A121D12688243864B1B1D1A6000
:10580000704739B1834A0C3212680243814B0C3322
:105810001A6006E07F4A0C32126882437D4B0C33DB
:105820001A60704739B17B4A103212680243794BD3
:1058300010331A6006E0774A103212688243754BC3
:1058400010331A60704739B1724A243A1268024321
:10585000704B243B1A6006E06E4A243A1268824379
:105860006C4B243B1A60704739B16A4A203A12687F
:105870000243684B203B1A6006E0664A203A1268F1
:105880008243644B203B1A60704739B1614A1C3A2D
:10589000126802435F4B1C3B1A6006E05D4A1C3AEB
:1058A000126882435B4B1C3B1A60704739B1594AFE
:1058B000143A12680243574B143B1A6006E0554AEB
:1058C000143A12688243534B143B1A60704739B143
:1058D000504A103A126802434E4B103B1A6006E0E1
:1058E0004C4A103A126882434A4B103B1A60704788
:1058F00039B1484A1C3212680243464B1C331A60C5
:1059000006E0444A1C3212688243424B1C331A6040
:10591000704739B13F4A2032126802433D4B203371
:105920001A6006E03B4A203212688243394B20332A
:105930001A60704739B1374A243212680243354B36
:1059400024331A6006E0334A243212688243314B12
:1059500024331A60704739B12E4A2C321268024340
:105960002C4B2C331A6006E02A4A2C3212688243F0
:10597000284B2C331A60704739B1264A30321268EE
:105980000243244B30331A6006E0224A3032126858
:105990008243204B30331A607047012808D11D49DB
:1059A0003C31096841F008011A4A3C32116007E0B5
:1059B00018493C31096821F00801164A3C3211604F
:1059C000704739B1134A273A12780243114B273BEB
:1059D0001A7006E00F4A273A127882430D4B273B94
:1059E0001A7070470B484030006840F080700949D9
:1059F00040310860704701460020064A283A126884
:105A00000A400AB1012000E0002070470149263910
:105A1000087070473438024010B50446FA48844292
:105A200008D101211020FFF752FF00211020FFF7BD
:105A30004EFF57E0F548844209D101214804FFF7A1
:105A400035FF00214FF40030FFF730FF4AE0F04807
:105A5000844209D101218804FFF728FF00214FF477
:105A60008020FFF723FF3DE0EA48844209D101216D
:105A7000C804FFF71BFF00214FF40020FFF716FFBB
:105A800030E0E548844209D101210805FFF70EFF07
:105A900000214FF48010FFF709FF23E0DF48844224
:105AA00008D101212020FFF712FF00212020FFF75D
:105AB0000EFF17E0DA48844209D101218807FFF779
:105AC000F5FE00214FF08040FFF7F0FE0AE0D548D8
:105AD000844207D101214005FFF7E8FE002160055F
